{
  "_format": "hh-sol-artifact-1",
  "contractName": "NFT",
  "sourceName": "src/backend/contracts/NFT.sol",
  "abi": [
    {
      "inputs": [],
      "stateMutability": "nonpayable",
      "type": "constructor"
    },
    {
      "anonymous": false,
      "inputs": [
        {
          "indexed": true,
          "internalType": "address",
          "name": "owner",
          "type": "address"
        },
        {
          "indexed": true,
          "internalType": "address",
          "name": "approved",
          "type": "address"
        },
        {
          "indexed": true,
          "internalType": "uint256",
          "name": "tokenId",
          "type": "uint256"
        }
      ],
      "name": "Approval",
      "type": "event"
    },
    {
      "anonymous": false,
      "inputs": [
        {
          "indexed": true,
          "internalType": "address",
          "name": "owner",
          "type": "address"
        },
        {
          "indexed": true,
          "internalType": "address",
          "name": "operator",
          "type": "address"
        },
        {
          "indexed": false,
          "internalType": "bool",
          "name": "approved",
          "type": "bool"
        }
      ],
      "name": "ApprovalForAll",
      "type": "event"
    },
    {
      "anonymous": false,
      "inputs": [
        {
          "indexed": true,
          "internalType": "address",
          "name": "from",
          "type": "address"
        },
        {
          "indexed": true,
          "internalType": "address",
          "name": "to",
          "type": "address"
        },
        {
          "indexed": true,
          "internalType": "uint256",
          "name": "tokenId",
          "type": "uint256"
        }
      ],
      "name": "Transfer",
      "type": "event"
    },
    {
      "inputs": [
        {
          "internalType": "address",
          "name": "_user",
          "type": "address"
        },
        {
          "internalType": "uint256",
          "name": "_tokenId",
          "type": "uint256"
        }
      ],
      "name": "addBuyer",
      "outputs": [],
      "stateMutability": "nonpayable",
      "type": "function"
    },
    {
      "inputs": [
        {
          "internalType": "address",
          "name": "to",
          "type": "address"
        },
        {
          "internalType": "uint256",
          "name": "tokenId",
          "type": "uint256"
        }
      ],
      "name": "approve",
      "outputs": [],
      "stateMutability": "nonpayable",
      "type": "function"
    },
    {
      "inputs": [
        {
          "internalType": "address",
          "name": "owner",
          "type": "address"
        }
      ],
      "name": "balanceOf",
      "outputs": [
        {
          "internalType": "uint256",
          "name": "",
          "type": "uint256"
        }
      ],
      "stateMutability": "view",
      "type": "function"
    },
    {
      "inputs": [
        {
          "internalType": "uint256",
          "name": "",
          "type": "uint256"
        },
        {
          "internalType": "uint256",
          "name": "",
          "type": "uint256"
        }
      ],
      "name": "buyers",
      "outputs": [
        {
          "internalType": "address",
          "name": "",
          "type": "address"
        }
      ],
      "stateMutability": "view",
      "type": "function"
    },
    {
      "inputs": [
        {
          "internalType": "uint256",
          "name": "tokenId",
          "type": "uint256"
        }
      ],
      "name": "getApproved",
      "outputs": [
        {
          "internalType": "address",
          "name": "",
          "type": "address"
        }
      ],
      "stateMutability": "view",
      "type": "function"
    },
    {
      "inputs": [
        {
          "internalType": "uint256",
          "name": "_tokenId",
          "type": "uint256"
        }
      ],
      "name": "getBuyersCount",
      "outputs": [
        {
          "internalType": "uint256",
          "name": "",
          "type": "uint256"
        }
      ],
      "stateMutability": "view",
      "type": "function"
    },
    {
      "inputs": [
        {
          "internalType": "address",
          "name": "owner",
          "type": "address"
        },
        {
          "internalType": "address",
          "name": "operator",
          "type": "address"
        }
      ],
      "name": "isApprovedForAll",
      "outputs": [
        {
          "internalType": "bool",
          "name": "",
          "type": "bool"
        }
      ],
      "stateMutability": "view",
      "type": "function"
    },
    {
      "inputs": [
        {
          "internalType": "string",
          "name": "_tokenURI",
          "type": "string"
        }
      ],
      "name": "mint",
      "outputs": [
        {
          "internalType": "uint256",
          "name": "",
          "type": "uint256"
        }
      ],
      "stateMutability": "nonpayable",
      "type": "function"
    },
    {
      "inputs": [],
      "name": "name",
      "outputs": [
        {
          "internalType": "string",
          "name": "",
          "type": "string"
        }
      ],
      "stateMutability": "view",
      "type": "function"
    },
    {
      "inputs": [
        {
          "internalType": "uint256",
          "name": "tokenId",
          "type": "uint256"
        }
      ],
      "name": "ownerOf",
      "outputs": [
        {
          "internalType": "address",
          "name": "",
          "type": "address"
        }
      ],
      "stateMutability": "view",
      "type": "function"
    },
    {
      "inputs": [
        {
          "internalType": "address",
          "name": "from",
          "type": "address"
        },
        {
          "internalType": "address",
          "name": "to",
          "type": "address"
        },
        {
          "internalType": "uint256",
          "name": "tokenId",
          "type": "uint256"
        }
      ],
      "name": "safeTransferFrom",
      "outputs": [],
      "stateMutability": "nonpayable",
      "type": "function"
    },
    {
      "inputs": [
        {
          "internalType": "address",
          "name": "from",
          "type": "address"
        },
        {
          "internalType": "address",
          "name": "to",
          "type": "address"
        },
        {
          "internalType": "uint256",
          "name": "tokenId",
          "type": "uint256"
        },
        {
          "internalType": "bytes",
          "name": "_data",
          "type": "bytes"
        }
      ],
      "name": "safeTransferFrom",
      "outputs": [],
      "stateMutability": "nonpayable",
      "type": "function"
    },
    {
      "inputs": [
        {
          "internalType": "address",
          "name": "operator",
          "type": "address"
        },
        {
          "internalType": "bool",
          "name": "approved",
          "type": "bool"
        }
      ],
      "name": "setApprovalForAll",
      "outputs": [],
      "stateMutability": "nonpayable",
      "type": "function"
    },
    {
      "inputs": [
        {
          "internalType": "bytes4",
          "name": "interfaceId",
          "type": "bytes4"
        }
      ],
      "name": "supportsInterface",
      "outputs": [
        {
          "internalType": "bool",
          "name": "",
          "type": "bool"
        }
      ],
      "stateMutability": "view",
      "type": "function"
    },
    {
      "inputs": [],
      "name": "symbol",
      "outputs": [
        {
          "internalType": "string",
          "name": "",
          "type": "string"
        }
      ],
      "stateMutability": "view",
      "type": "function"
    },
    {
      "inputs": [],
      "name": "tokenCount",
      "outputs": [
        {
          "internalType": "uint256",
          "name": "",
          "type": "uint256"
        }
      ],
      "stateMutability": "view",
      "type": "function"
    },
    {
      "inputs": [
        {
          "internalType": "uint256",
          "name": "tokenId",
          "type": "uint256"
        }
      ],
      "name": "tokenURI",
      "outputs": [
        {
          "internalType": "string",
          "name": "",
          "type": "string"
        }
      ],
      "stateMutability": "view",
      "type": "function"
    },
    {
      "inputs": [
        {
          "internalType": "address",
          "name": "from",
          "type": "address"
        },
        {
          "internalType": "address",
          "name": "to",
          "type": "address"
        },
        {
          "internalType": "uint256",
          "name": "tokenId",
          "type": "uint256"
        }
      ],
      "name": "transferFrom",
      "outputs": [],
      "stateMutability": "nonpayable",
      "type": "function"
    },
    {
      "inputs": [
        {
          "internalType": "address",
          "name": "_user",
          "type": "address"
        },
        {
          "internalType": "uint256",
          "name": "_tokenId",
          "type": "uint256"
        }
      ],
      "name": "userHasBoughtToken",
      "outputs": [
        {
          "internalType": "bool",
          "name": "",
          "type": "bool"
        }
      ],
      "stateMutability": "view",
      "type": "function"
    }
  ],
  "bytecode": "0x60806040523480156200001157600080fd5b506040518060400160405280601681526020017f417274697374204d61726b6574706c616365204e4654000000000000000000008152506040518060400160405280600381526020017f414d4e0000000000000000000000000000000000000000000000000000000000815250816000908051906020019062000096929190620000b8565b508060019080519060200190620000af929190620000b8565b505050620001cd565b828054620000c69062000168565b90600052602060002090601f016020900481019282620000ea576000855562000136565b82601f106200010557805160ff191683800117855562000136565b8280016001018555821562000136579182015b828111156200013557825182559160200191906001019062000118565b5b50905062000145919062000149565b5090565b5b80821115620001645760008160009055506001016200014a565b5090565b600060028204905060018216806200018157607f821691505b602082108114156200019857620001976200019e565b5b50919050565b7f4e487b7100000000000000000000000000000000000000000000000000000000600052602260045260246000fd5b612f0380620001dd6000396000f3fe608060405234801561001057600080fd5b50600436106101215760003560e01c80636352211e116100ad578063b88d4fde11610071578063b88d4fde1461032c578063c87b56dd14610348578063d85d3d2714610378578063e44dc2fa146103a8578063e985e9c5146103d857610121565b80636352211e1461027457806370a08231146102a457806395d89b41146102d45780639f181b5e146102f2578063a22cb4651461031057610121565b806323b872dd116100f457806323b872dd146101c057806326aa7c58146101dc57806327e7875a146101f857806342842e0e1461022857806346b73b201461024457610121565b806301ffc9a71461012657806306fdde0314610156578063081812fc14610174578063095ea7b3146101a4575b600080fd5b610140600480360381019061013b9190611f33565b610408565b60405161014d91906123b6565b60405180910390f35b61015e6104ea565b60405161016b91906123d1565b60405180910390f35b61018e60048036038101906101899190611fc6565b61057c565b60405161019b919061234f565b60405180910390f35b6101be60048036038101906101b99190611ef7565b610601565b005b6101da60048036038101906101d59190611df1565b610719565b005b6101f660048036038101906101f19190611ef7565b610779565b005b610212600480360381019061020d9190611fef565b6107f1565b60405161021f919061234f565b60405180910390f35b610242600480360381019061023d9190611df1565b61083f565b005b61025e60048036038101906102599190611ef7565b61085f565b60405161026b91906123b6565b60405180910390f35b61028e60048036038101906102899190611fc6565b610957565b60405161029b919061234f565b60405180910390f35b6102be60048036038101906102b99190611d8c565b610a09565b6040516102cb91906125f3565b60405180910390f35b6102dc610ac1565b6040516102e991906123d1565b60405180910390f35b6102fa610b53565b60405161030791906125f3565b60405180910390f35b61032a60048036038101906103259190611ebb565b610b59565b005b61034660048036038101906103419190611e40565b610b6f565b005b610362600480360381019061035d9190611fc6565b610bd1565b60405161036f91906123d1565b60405180910390f35b610392600480360381019061038d9190611f85565b610d23565b60405161039f91906125f3565b60405180910390f35b6103c260048036038101906103bd9190611fc6565b610d61565b6040516103cf91906125f3565b60405180910390f35b6103f260048036038101906103ed9190611db5565b610d81565b6040516103ff91906123b6565b60405180910390f35b60007f80ac58cd000000000000000000000000000000000000000000000000000000007bffffffffffffffffffffffffffffffffffffffffffffffffffffffff1916827bffffffffffffffffffffffffffffffffffffffffffffffffffffffff191614806104d357507f5b5e139f000000000000000000000000000000000000000000000000000000007bffffffffffffffffffffffffffffffffffffffffffffffffffffffff1916827bffffffffffffffffffffffffffffffffffffffffffffffffffffffff1916145b806104e357506104e282610e15565b5b9050919050565b6060600080546104f990612849565b80601f016020809104026020016040519081016040528092919081815260200182805461052590612849565b80156105725780601f1061054757610100808354040283529160200191610572565b820191906000526020600020905b81548152906001019060200180831161055557829003601f168201915b5050505050905090565b600061058782610e7f565b6105c6576040517f08c379a00000000000000000000000000000000000000000000000000000000081526004016105bd90612573565b60405180910390fd5b6004600083815260200190815260200160002060009054906101000a900473ffffffffffffffffffffffffffffffffffffffff169050919050565b600061060c82610957565b90508073ffffffffffffffffffffffffffffffffffffffff168373ffffffffffffffffffffffffffffffffffffffff16141561067d576040517f08c379a0000000000000000000000000000000000000000000000000000000008152600401610674906125b3565b60405180910390fd5b8073ffffffffffffffffffffffffffffffffffffffff1661069c610eeb565b73ffffffffffffffffffffffffffffffffffffffff1614806106cb57506106ca816106c5610eeb565b610d81565b5b61070a576040517f08c379a0000000000000000000000000000000000000000000000000000000008152600401610701906124b3565b60405180910390fd5b6107148383610ef3565b505050565b61072a610724610eeb565b82610fac565b610769576040517f08c379a0000000000000000000000000000000000000000000000000000000008152600401610760906125d3565b60405180910390fd5b61077483838361108a565b505050565b60086000828152602001908152602001600020829080600181540180825580915050600190039060005260206000200160009091909190916101000a81548173ffffffffffffffffffffffffffffffffffffffff021916908373ffffffffffffffffffffffffffffffffffffffff1602179055505050565b6008602052816000526040600020818154811061080d57600080fd5b906000526020600020016000915091509054906101000a900473ffffffffffffffffffffffffffffffffffffffff1681565b61085a83838360405180602001604052806000815250610b6f565b505050565b600080600090505b600860008481526020019081526020016000208054905081101561094b578373ffffffffffffffffffffffffffffffffffffffff166008600085815260200190815260200160002082815481106108e7577f4e487b7100000000000000000000000000000000000000000000000000000000600052603260045260246000fd5b9060005260206000200160009054906101000a900473ffffffffffffffffffffffffffffffffffffffff1673ffffffffffffffffffffffffffffffffffffffff161415610938576001915050610951565b8080610943906128ac565b915050610867565b50600090505b92915050565b6000806002600084815260200190815260200160002060009054906101000a900473ffffffffffffffffffffffffffffffffffffffff169050600073ffffffffffffffffffffffffffffffffffffffff168173ffffffffffffffffffffffffffffffffffffffff161415610a00576040517f08c379a00000000000000000000000000000000000000000000000000000000081526004016109f7906124f3565b60405180910390fd5b80915050919050565b60008073ffffffffffffffffffffffffffffffffffffffff168273ffffffffffffffffffffffffffffffffffffffff161415610a7a576040517f08c379a0000000000000000000000000000000000000000000000000000000008152600401610a71906124d3565b60405180910390fd5b600360008373ffffffffffffffffffffffffffffffffffffffff1673ffffffffffffffffffffffffffffffffffffffff168152602001908152602001600020549050919050565b606060018054610ad090612849565b80601f0160208091040260200160405190810160405280929190818152602001828054610afc90612849565b8015610b495780601f10610b1e57610100808354040283529160200191610b49565b820191906000526020600020905b815481529060010190602001808311610b2c57829003601f168201915b5050505050905090565b60075481565b610b6b610b64610eeb565b83836112f1565b5050565b610b80610b7a610eeb565b83610fac565b610bbf576040517f08c379a0000000000000000000000000000000000000000000000000000000008152600401610bb6906125d3565b60405180910390fd5b610bcb8484848461145e565b50505050565b6060610bdc82610e7f565b610c1b576040517f08c379a0000000000000000000000000000000000000000000000000000000008152600401610c1290612553565b60405180910390fd5b6000600660008481526020019081526020016000208054610c3b90612849565b80601f0160208091040260200160405190810160405280929190818152602001828054610c6790612849565b8015610cb45780601f10610c8957610100808354040283529160200191610cb4565b820191906000526020600020905b815481529060010190602001808311610c9757829003601f168201915b505050505090506000610cc56114ba565b9050600081511415610cdb578192505050610d1e565b600082511115610d10578082604051602001610cf892919061232b565b60405160208183030381529060405292505050610d1e565b610d19846114d1565b925050505b919050565b6000600160076000828254610d3891906126d8565b92505081905550610d4b33600754611578565b610d5760075483611596565b6007549050919050565b600060086000838152602001908152602001600020805490509050919050565b6000600560008473ffffffffffffffffffffffffffffffffffffffff1673ffffffffffffffffffffffffffffffffffffffff16815260200190815260200160002060008373ffffffffffffffffffffffffffffffffffffffff1673ffffffffffffffffffffffffffffffffffffffff16815260200190815260200160002060009054906101000a900460ff16905092915050565b60007f01ffc9a7000000000000000000000000000000000000000000000000000000007bffffffffffffffffffffffffffffffffffffffffffffffffffffffff1916827bffffffffffffffffffffffffffffffffffffffffffffffffffffffff1916149050919050565b60008073ffffffffffffffffffffffffffffffffffffffff166002600084815260200190815260200160002060009054906101000a900473ffffffffffffffffffffffffffffffffffffffff1673ffffffffffffffffffffffffffffffffffffffff1614159050919050565b600033905090565b816004600083815260200190815260200160002060006101000a81548173ffffffffffffffffffffffffffffffffffffffff021916908373ffffffffffffffffffffffffffffffffffffffff160217905550808273ffffffffffffffffffffffffffffffffffffffff16610f6683610957565b73ffffffffffffffffffffffffffffffffffffffff167f8c5be1e5ebec7d5bd14f71427d1e84f3dd0314c0f7b2291e5b200ac8c7c3b92560405160405180910390a45050565b6000610fb782610e7f565b610ff6576040517f08c379a0000000000000000000000000000000000000000000000000000000008152600401610fed90612493565b60405180910390fd5b600061100183610957565b90508073ffffffffffffffffffffffffffffffffffffffff168473ffffffffffffffffffffffffffffffffffffffff16148061107057508373ffffffffffffffffffffffffffffffffffffffff166110588461057c565b73ffffffffffffffffffffffffffffffffffffffff16145b8061108157506110808185610d81565b5b91505092915050565b8273ffffffffffffffffffffffffffffffffffffffff166110aa82610957565b73ffffffffffffffffffffffffffffffffffffffff1614611100576040517f08c379a00000000000000000000000000000000000000000000000000000000081526004016110f790612413565b60405180910390fd5b600073ffffffffffffffffffffffffffffffffffffffff168273ffffffffffffffffffffffffffffffffffffffff161415611170576040517f08c379a000000000000000000000000000000000000000000000000000000000815260040161116790612453565b60405180910390fd5b61117b83838361160a565b611186600082610ef3565b6001600360008573ffffffffffffffffffffffffffffffffffffffff1673ffffffffffffffffffffffffffffffffffffffff16815260200190815260200160002060008282546111d6919061275f565b925050819055506001600360008473ffffffffffffffffffffffffffffffffffffffff1673ffffffffffffffffffffffffffffffffffffffff168152602001908152602001600020600082825461122d91906126d8565b92505081905550816002600083815260200190815260200160002060006101000a81548173ffffffffffffffffffffffffffffffffffffffff021916908373ffffffffffffffffffffffffffffffffffffffff160217905550808273ffffffffffffffffffffffffffffffffffffffff168473ffffffffffffffffffffffffffffffffffffffff167fddf252ad1be2c89b69c2b068fc378daa952ba7f163c4a11628f55a4df523b3ef60405160405180910390a46112ec83838361160f565b505050565b8173ffffffffffffffffffffffffffffffffffffffff168373ffffffffffffffffffffffffffffffffffffffff161415611360576040517f08c379a000000000000000000000000000000000000000000000000000000000815260040161135790612473565b60405180910390fd5b80600560008573ffffffffffffffffffffffffffffffffffffffff1673ffffffffffffffffffffffffffffffffffffffff16815260200190815260200160002060008473ffffffffffffffffffffffffffffffffffffffff1673ffffffffffffffffffffffffffffffffffffffff16815260200190815260200160002060006101000a81548160ff0219169083151502179055508173ffffffffffffffffffffffffffffffffffffffff168373ffffffffffffffffffffffffffffffffffffffff167f17307eab39ab6107e8899845ad3d59bd9653f200f220920489ca2b5937696c318360405161145191906123b6565b60405180910390a3505050565b61146984848461108a565b61147584848484611614565b6114b4576040517f08c379a00000000000000000000000000000000000000000000000000000000081526004016114ab906123f3565b60405180910390fd5b50505050565b606060405180602001604052806000815250905090565b60606114dc82610e7f565b61151b576040517f08c379a000000000000000000000000000000000000000000000000000000000815260040161151290612593565b60405180910390fd5b60006115256114ba565b905060008151116115455760405180602001604052806000815250611570565b8061154f846117ab565b60405160200161156092919061232b565b6040516020818303038152906040525b915050919050565b611592828260405180602001604052806000815250611958565b5050565b61159f82610e7f565b6115de576040517f08c379a00000000000000000000000000000000000000000000000000000000081526004016115d590612513565b60405180910390fd5b80600660008481526020019081526020016000209080519060200190611605929190611bb0565b505050565b505050565b505050565b60006116358473ffffffffffffffffffffffffffffffffffffffff166119b3565b1561179e578373ffffffffffffffffffffffffffffffffffffffff1663150b7a0261165e610eeb565b8786866040518563ffffffff1660e01b8152600401611680949392919061236a565b602060405180830381600087803b15801561169a57600080fd5b505af19250505080156116cb57506040513d601f19601f820116820180604052508101906116c89190611f5c565b60015b61174e573d80600081146116fb576040519150601f19603f3d011682016040523d82523d6000602084013e611700565b606091505b50600081511415611746576040517f08c379a000000000000000000000000000000000000000000000000000000000815260040161173d906123f3565b60405180910390fd5b805181602001fd5b63150b7a0260e01b7bffffffffffffffffffffffffffffffffffffffffffffffffffffffff1916817bffffffffffffffffffffffffffffffffffffffffffffffffffffffff1916149150506117a3565b600190505b949350505050565b606060008214156117f3576040518060400160405280600181526020017f30000000000000000000000000000000000000000000000000000000000000008152509050611953565b600082905060005b6000821461182557808061180e906128ac565b915050600a8261181e919061272e565b91506117fb565b60008167ffffffffffffffff811115611867577f4e487b7100000000000000000000000000000000000000000000000000000000600052604160045260246000fd5b6040519080825280601f01601f1916602001820160405280156118995781602001600182028036833780820191505090505b5090505b6000851461194c576001826118b2919061275f565b9150600a856118c191906128f5565b60306118cd91906126d8565b60f81b818381518110611909577f4e487b7100000000000000000000000000000000000000000000000000000000600052603260045260246000fd5b60200101907effffffffffffffffffffffffffffffffffffffffffffffffffffffffffffff1916908160001a905350600a85611945919061272e565b945061189d565b8093505050505b919050565b61196283836119d6565b61196f6000848484611614565b6119ae576040517f08c379a00000000000000000000000000000000000000000000000000000000081526004016119a5906123f3565b60405180910390fd5b505050565b6000808273ffffffffffffffffffffffffffffffffffffffff163b119050919050565b600073ffffffffffffffffffffffffffffffffffffffff168273ffffffffffffffffffffffffffffffffffffffff161415611a46576040517f08c379a0000000000000000000000000000000000000000000000000000000008152600401611a3d90612533565b60405180910390fd5b611a4f81610e7f565b15611a8f576040517f08c379a0000000000000000000000000000000000000000000000000000000008152600401611a8690612433565b60405180910390fd5b611a9b6000838361160a565b6001600360008473ffffffffffffffffffffffffffffffffffffffff1673ffffffffffffffffffffffffffffffffffffffff1681526020019081526020016000206000828254611aeb91906126d8565b92505081905550816002600083815260200190815260200160002060006101000a81548173ffffffffffffffffffffffffffffffffffffffff021916908373ffffffffffffffffffffffffffffffffffffffff160217905550808273ffffffffffffffffffffffffffffffffffffffff16600073ffffffffffffffffffffffffffffffffffffffff167fddf252ad1be2c89b69c2b068fc378daa952ba7f163c4a11628f55a4df523b3ef60405160405180910390a4611bac6000838361160f565b5050565b828054611bbc90612849565b90600052602060002090601f016020900481019282611bde5760008555611c25565b82601f10611bf757805160ff1916838001178555611c25565b82800160010185558215611c25579182015b82811115611c24578251825591602001919060010190611c09565b5b509050611c329190611c36565b5090565b5b80821115611c4f576000816000905550600101611c37565b5090565b6000611c66611c6184612633565b61260e565b905082815260208101848484011115611c7e57600080fd5b611c89848285612807565b509392505050565b6000611ca4611c9f84612664565b61260e565b905082815260208101848484011115611cbc57600080fd5b611cc7848285612807565b509392505050565b600081359050611cde81612e71565b92915050565b600081359050611cf381612e88565b92915050565b600081359050611d0881612e9f565b92915050565b600081519050611d1d81612e9f565b92915050565b600082601f830112611d3457600080fd5b8135611d44848260208601611c53565b91505092915050565b600082601f830112611d5e57600080fd5b8135611d6e848260208601611c91565b91505092915050565b600081359050611d8681612eb6565b92915050565b600060208284031215611d9e57600080fd5b6000611dac84828501611ccf565b91505092915050565b60008060408385031215611dc857600080fd5b6000611dd685828601611ccf565b9250506020611de785828601611ccf565b9150509250929050565b600080600060608486031215611e0657600080fd5b6000611e1486828701611ccf565b9350506020611e2586828701611ccf565b9250506040611e3686828701611d77565b9150509250925092565b60008060008060808587031215611e5657600080fd5b6000611e6487828801611ccf565b9450506020611e7587828801611ccf565b9350506040611e8687828801611d77565b925050606085013567ffffffffffffffff811115611ea357600080fd5b611eaf87828801611d23565b91505092959194509250565b60008060408385031215611ece57600080fd5b6000611edc85828601611ccf565b9250506020611eed85828601611ce4565b9150509250929050565b60008060408385031215611f0a57600080fd5b6000611f1885828601611ccf565b9250506020611f2985828601611d77565b9150509250929050565b600060208284031215611f4557600080fd5b6000611f5384828501611cf9565b91505092915050565b600060208284031215611f6e57600080fd5b6000611f7c84828501611d0e565b91505092915050565b600060208284031215611f9757600080fd5b600082013567ffffffffffffffff811115611fb157600080fd5b611fbd84828501611d4d565b91505092915050565b600060208284031215611fd857600080fd5b6000611fe684828501611d77565b91505092915050565b6000806040838503121561200257600080fd5b600061201085828601611d77565b925050602061202185828601611d77565b9150509250929050565b61203481612793565b82525050565b612043816127a5565b82525050565b600061205482612695565b61205e81856126ab565b935061206e818560208601612816565b612077816129e2565b840191505092915050565b600061208d826126a0565b61209781856126bc565b93506120a7818560208601612816565b6120b0816129e2565b840191505092915050565b60006120c6826126a0565b6120d081856126cd565b93506120e0818560208601612816565b80840191505092915050565b60006120f96032836126bc565b9150612104826129f3565b604082019050919050565b600061211c6025836126bc565b915061212782612a42565b604082019050919050565b600061213f601c836126bc565b915061214a82612a91565b602082019050919050565b60006121626024836126bc565b915061216d82612aba565b604082019050919050565b60006121856019836126bc565b915061219082612b09565b602082019050919050565b60006121a8602c836126bc565b91506121b382612b32565b604082019050919050565b60006121cb6038836126bc565b91506121d682612b81565b604082019050919050565b60006121ee602a836126bc565b91506121f982612bd0565b604082019050919050565b60006122116029836126bc565b915061221c82612c1f565b604082019050919050565b6000612234602e836126bc565b915061223f82612c6e565b604082019050919050565b60006122576020836126bc565b915061226282612cbd565b602082019050919050565b600061227a6031836126bc565b915061228582612ce6565b604082019050919050565b600061229d602c836126bc565b91506122a882612d35565b604082019050919050565b60006122c0602f836126bc565b91506122cb82612d84565b604082019050919050565b60006122e36021836126bc565b91506122ee82612dd3565b604082019050919050565b60006123066031836126bc565b915061231182612e22565b604082019050919050565b612325816127fd565b82525050565b600061233782856120bb565b915061234382846120bb565b91508190509392505050565b6000602082019050612364600083018461202b565b92915050565b600060808201905061237f600083018761202b565b61238c602083018661202b565b612399604083018561231c565b81810360608301526123ab8184612049565b905095945050505050565b60006020820190506123cb600083018461203a565b92915050565b600060208201905081810360008301526123eb8184612082565b905092915050565b6000602082019050818103600083015261240c816120ec565b9050919050565b6000602082019050818103600083015261242c8161210f565b9050919050565b6000602082019050818103600083015261244c81612132565b9050919050565b6000602082019050818103600083015261246c81612155565b9050919050565b6000602082019050818103600083015261248c81612178565b9050919050565b600060208201905081810360008301526124ac8161219b565b9050919050565b600060208201905081810360008301526124cc816121be565b9050919050565b600060208201905081810360008301526124ec816121e1565b9050919050565b6000602082019050818103600083015261250c81612204565b9050919050565b6000602082019050818103600083015261252c81612227565b9050919050565b6000602082019050818103600083015261254c8161224a565b9050919050565b6000602082019050818103600083015261256c8161226d565b9050919050565b6000602082019050818103600083015261258c81612290565b9050919050565b600060208201905081810360008301526125ac816122b3565b9050919050565b600060208201905081810360008301526125cc816122d6565b9050919050565b600060208201905081810360008301526125ec816122f9565b9050919050565b6000602082019050612608600083018461231c565b92915050565b6000612618612629565b9050612624828261287b565b919050565b6000604051905090565b600067ffffffffffffffff82111561264e5761264d6129b3565b5b612657826129e2565b9050602081019050919050565b600067ffffffffffffffff82111561267f5761267e6129b3565b5b612688826129e2565b9050602081019050919050565b600081519050919050565b600081519050919050565b600082825260208201905092915050565b600082825260208201905092915050565b600081905092915050565b60006126e3826127fd565b91506126ee836127fd565b9250827fffffffffffffffffffffffffffffffffffffffffffffffffffffffffffffffff0382111561272357612722612926565b5b828201905092915050565b6000612739826127fd565b9150612744836127fd565b92508261275457612753612955565b5b828204905092915050565b600061276a826127fd565b9150612775836127fd565b92508282101561278857612787612926565b5b828203905092915050565b600061279e826127dd565b9050919050565b60008115159050919050565b60007fffffffff0000000000000000000000000000000000000000000000000000000082169050919050565b600073ffffffffffffffffffffffffffffffffffffffff82169050919050565b6000819050919050565b82818337600083830152505050565b60005b83811015612834578082015181840152602081019050612819565b83811115612843576000848401525b50505050565b6000600282049050600182168061286157607f821691505b6020821081141561287557612874612984565b5b50919050565b612884826129e2565b810181811067ffffffffffffffff821117156128a3576128a26129b3565b5b80604052505050565b60006128b7826127fd565b91507fffffffffffffffffffffffffffffffffffffffffffffffffffffffffffffffff8214156128ea576128e9612926565b5b600182019050919050565b6000612900826127fd565b915061290b836127fd565b92508261291b5761291a612955565b5b828206905092915050565b7f4e487b7100000000000000000000000000000000000000000000000000000000600052601160045260246000fd5b7f4e487b7100000000000000000000000000000000000000000000000000000000600052601260045260246000fd5b7f4e487b7100000000000000000000000000000000000000000000000000000000600052602260045260246000fd5b7f4e487b7100000000000000000000000000000000000000000000000000000000600052604160045260246000fd5b6000601f19601f8301169050919050565b7f4552433732313a207472616e7366657220746f206e6f6e20455243373231526560008201527f63656976657220696d706c656d656e7465720000000000000000000000000000602082015250565b7f4552433732313a207472616e736665722066726f6d20696e636f72726563742060008201527f6f776e6572000000000000000000000000000000000000000000000000000000602082015250565b7f4552433732313a20746f6b656e20616c7265616479206d696e74656400000000600082015250565b7f4552433732313a207472616e7366657220746f20746865207a65726f2061646460008201527f7265737300000000000000000000000000000000000000000000000000000000602082015250565b7f4552433732313a20617070726f766520746f2063616c6c657200000000000000600082015250565b7f4552433732313a206f70657261746f7220717565727920666f72206e6f6e657860008201527f697374656e7420746f6b656e0000000000000000000000000000000000000000602082015250565b7f4552433732313a20617070726f76652063616c6c6572206973206e6f74206f7760008201527f6e6572206e6f7220617070726f76656420666f7220616c6c0000000000000000602082015250565b7f4552433732313a2062616c616e636520717565727920666f7220746865207a6560008201527f726f206164647265737300000000000000000000000000000000000000000000602082015250565b7f4552433732313a206f776e657220717565727920666f72206e6f6e657869737460008201527f656e7420746f6b656e0000000000000000000000000000000000000000000000602082015250565b7f45524337323155524953746f726167653a2055524920736574206f66206e6f6e60008201527f6578697374656e7420746f6b656e000000000000000000000000000000000000602082015250565b7f4552433732313a206d696e7420746f20746865207a65726f2061646472657373600082015250565b7f45524337323155524953746f726167653a2055524920717565727920666f722060008201527f6e6f6e6578697374656e7420746f6b656e000000000000000000000000000000602082015250565b7f4552433732313a20617070726f76656420717565727920666f72206e6f6e657860008201527f697374656e7420746f6b656e0000000000000000000000000000000000000000602082015250565b7f4552433732314d657461646174613a2055524920717565727920666f72206e6f60008201527f6e6578697374656e7420746f6b656e0000000000000000000000000000000000602082015250565b7f4552433732313a20617070726f76616c20746f2063757272656e74206f776e6560008201527f7200000000000000000000000000000000000000000000000000000000000000602082015250565b7f4552433732313a207472616e736665722063616c6c6572206973206e6f74206f60008201527f776e6572206e6f7220617070726f766564000000000000000000000000000000602082015250565b612e7a81612793565b8114612e8557600080fd5b50565b612e91816127a5565b8114612e9c57600080fd5b50565b612ea8816127b1565b8114612eb357600080fd5b50565b612ebf816127fd565b8114612eca57600080fd5b5056fea26469706673582212206ef0fac7a2730ab81346cc8dd5e9ee693530829908a24ad8a1f86f85fb0a1a9264736f6c63430008040033",
  "linkReferences": {},
  "deployedLinkReferences": {}
}