{
  "_format": "hh-sol-artifact-1",
  "contractName": "NFT",
  "sourceName": "src/backend/contracts/NFT.sol",
  "abi": [
    {
      "inputs": [],
      "stateMutability": "nonpayable",
      "type": "constructor"
    },
    {
      "anonymous": false,
      "inputs": [
        {
          "indexed": true,
          "internalType": "address",
          "name": "owner",
          "type": "address"
        },
        {
          "indexed": true,
          "internalType": "address",
          "name": "approved",
          "type": "address"
        },
        {
          "indexed": true,
          "internalType": "uint256",
          "name": "tokenId",
          "type": "uint256"
        }
      ],
      "name": "Approval",
      "type": "event"
    },
    {
      "anonymous": false,
      "inputs": [
        {
          "indexed": true,
          "internalType": "address",
          "name": "owner",
          "type": "address"
        },
        {
          "indexed": true,
          "internalType": "address",
          "name": "operator",
          "type": "address"
        },
        {
          "indexed": false,
          "internalType": "bool",
          "name": "approved",
          "type": "bool"
        }
      ],
      "name": "ApprovalForAll",
      "type": "event"
    },
    {
      "anonymous": false,
      "inputs": [
        {
          "indexed": true,
          "internalType": "address",
          "name": "from",
          "type": "address"
        },
        {
          "indexed": true,
          "internalType": "address",
          "name": "to",
          "type": "address"
        },
        {
          "indexed": true,
          "internalType": "uint256",
          "name": "tokenId",
          "type": "uint256"
        }
      ],
      "name": "Transfer",
      "type": "event"
    },
    {
      "inputs": [
        {
          "internalType": "address",
          "name": "_user",
          "type": "address"
        },
        {
          "internalType": "uint256",
          "name": "_tokenId",
          "type": "uint256"
        }
      ],
      "name": "addBuyer",
      "outputs": [],
      "stateMutability": "nonpayable",
      "type": "function"
    },
    {
      "inputs": [
        {
          "internalType": "address",
          "name": "to",
          "type": "address"
        },
        {
          "internalType": "uint256",
          "name": "tokenId",
          "type": "uint256"
        }
      ],
      "name": "approve",
      "outputs": [],
      "stateMutability": "nonpayable",
      "type": "function"
    },
    {
      "inputs": [
        {
          "internalType": "address",
          "name": "owner",
          "type": "address"
        }
      ],
      "name": "balanceOf",
      "outputs": [
        {
          "internalType": "uint256",
          "name": "",
          "type": "uint256"
        }
      ],
      "stateMutability": "view",
      "type": "function"
    },
    {
      "inputs": [
        {
          "internalType": "uint256",
          "name": "",
          "type": "uint256"
        },
        {
          "internalType": "uint256",
          "name": "",
          "type": "uint256"
        }
      ],
      "name": "buyers",
      "outputs": [
        {
          "internalType": "address",
          "name": "",
          "type": "address"
        }
      ],
      "stateMutability": "view",
      "type": "function"
    },
    {
      "inputs": [
        {
          "internalType": "uint256",
          "name": "tokenId",
          "type": "uint256"
        }
      ],
      "name": "getApproved",
      "outputs": [
        {
          "internalType": "address",
          "name": "",
          "type": "address"
        }
      ],
      "stateMutability": "view",
      "type": "function"
    },
    {
      "inputs": [
        {
          "internalType": "uint256",
          "name": "_tokenId",
          "type": "uint256"
        }
      ],
      "name": "getBuyers",
      "outputs": [
        {
          "internalType": "address[]",
          "name": "",
          "type": "address[]"
        }
      ],
      "stateMutability": "view",
      "type": "function"
    },
    {
      "inputs": [
        {
          "internalType": "uint256",
          "name": "_tokenId",
          "type": "uint256"
        }
      ],
      "name": "getBuyersCount",
      "outputs": [
        {
          "internalType": "uint256",
          "name": "",
          "type": "uint256"
        }
      ],
      "stateMutability": "view",
      "type": "function"
    },
    {
      "inputs": [
        {
          "internalType": "address",
          "name": "_user",
          "type": "address"
        },
        {
          "internalType": "uint256",
          "name": "_tokenId",
          "type": "uint256"
        }
      ],
      "name": "getTokenUriForUser",
      "outputs": [
        {
          "internalType": "string",
          "name": "",
          "type": "string"
        }
      ],
      "stateMutability": "view",
      "type": "function"
    },
    {
      "inputs": [
        {
          "internalType": "address",
          "name": "owner",
          "type": "address"
        },
        {
          "internalType": "address",
          "name": "operator",
          "type": "address"
        }
      ],
      "name": "isApprovedForAll",
      "outputs": [
        {
          "internalType": "bool",
          "name": "",
          "type": "bool"
        }
      ],
      "stateMutability": "view",
      "type": "function"
    },
    {
      "inputs": [
        {
          "internalType": "string",
          "name": "_tokenURI",
          "type": "string"
        },
        {
          "internalType": "string",
          "name": "_hiddenTokenURI",
          "type": "string"
        }
      ],
      "name": "mint",
      "outputs": [
        {
          "internalType": "uint256",
          "name": "",
          "type": "uint256"
        }
      ],
      "stateMutability": "nonpayable",
      "type": "function"
    },
    {
      "inputs": [],
      "name": "name",
      "outputs": [
        {
          "internalType": "string",
          "name": "",
          "type": "string"
        }
      ],
      "stateMutability": "view",
      "type": "function"
    },
    {
      "inputs": [
        {
          "internalType": "uint256",
          "name": "tokenId",
          "type": "uint256"
        }
      ],
      "name": "ownerOf",
      "outputs": [
        {
          "internalType": "address",
          "name": "",
          "type": "address"
        }
      ],
      "stateMutability": "view",
      "type": "function"
    },
    {
      "inputs": [
        {
          "internalType": "address",
          "name": "from",
          "type": "address"
        },
        {
          "internalType": "address",
          "name": "to",
          "type": "address"
        },
        {
          "internalType": "uint256",
          "name": "tokenId",
          "type": "uint256"
        }
      ],
      "name": "safeTransferFrom",
      "outputs": [],
      "stateMutability": "nonpayable",
      "type": "function"
    },
    {
      "inputs": [
        {
          "internalType": "address",
          "name": "from",
          "type": "address"
        },
        {
          "internalType": "address",
          "name": "to",
          "type": "address"
        },
        {
          "internalType": "uint256",
          "name": "tokenId",
          "type": "uint256"
        },
        {
          "internalType": "bytes",
          "name": "_data",
          "type": "bytes"
        }
      ],
      "name": "safeTransferFrom",
      "outputs": [],
      "stateMutability": "nonpayable",
      "type": "function"
    },
    {
      "inputs": [
        {
          "internalType": "address",
          "name": "operator",
          "type": "address"
        },
        {
          "internalType": "bool",
          "name": "approved",
          "type": "bool"
        }
      ],
      "name": "setApprovalForAll",
      "outputs": [],
      "stateMutability": "nonpayable",
      "type": "function"
    },
    {
      "inputs": [
        {
          "internalType": "bytes4",
          "name": "interfaceId",
          "type": "bytes4"
        }
      ],
      "name": "supportsInterface",
      "outputs": [
        {
          "internalType": "bool",
          "name": "",
          "type": "bool"
        }
      ],
      "stateMutability": "view",
      "type": "function"
    },
    {
      "inputs": [],
      "name": "symbol",
      "outputs": [
        {
          "internalType": "string",
          "name": "",
          "type": "string"
        }
      ],
      "stateMutability": "view",
      "type": "function"
    },
    {
      "inputs": [],
      "name": "tokenCount",
      "outputs": [
        {
          "internalType": "uint256",
          "name": "",
          "type": "uint256"
        }
      ],
      "stateMutability": "view",
      "type": "function"
    },
    {
      "inputs": [
        {
          "internalType": "uint256",
          "name": "tokenId",
          "type": "uint256"
        }
      ],
      "name": "tokenURI",
      "outputs": [
        {
          "internalType": "string",
          "name": "",
          "type": "string"
        }
      ],
      "stateMutability": "view",
      "type": "function"
    },
    {
      "inputs": [
        {
          "internalType": "address",
          "name": "from",
          "type": "address"
        },
        {
          "internalType": "address",
          "name": "to",
          "type": "address"
        },
        {
          "internalType": "uint256",
          "name": "tokenId",
          "type": "uint256"
        }
      ],
      "name": "transferFrom",
      "outputs": [],
      "stateMutability": "nonpayable",
      "type": "function"
    },
    {
      "inputs": [
        {
          "internalType": "address",
          "name": "_user",
          "type": "address"
        },
        {
          "internalType": "uint256",
          "name": "_tokenId",
          "type": "uint256"
        }
      ],
      "name": "userHasBoughtToken",
      "outputs": [
        {
          "internalType": "bool",
          "name": "",
          "type": "bool"
        }
      ],
      "stateMutability": "view",
      "type": "function"
    }
  ],
  "bytecode": "0x60806040523480156200001157600080fd5b506040518060400160405280601681526020017f417274697374204d61726b6574706c616365204e4654000000000000000000008152506040518060400160405280600381526020017f414d4e0000000000000000000000000000000000000000000000000000000000815250816000908051906020019062000096929190620000b8565b508060019080519060200190620000af929190620000b8565b505050620001cd565b828054620000c69062000168565b90600052602060002090601f016020900481019282620000ea576000855562000136565b82601f106200010557805160ff191683800117855562000136565b8280016001018555821562000136579182015b828111156200013557825182559160200191906001019062000118565b5b50905062000145919062000149565b5090565b5b80821115620001645760008160009055506001016200014a565b5090565b600060028204905060018216806200018157607f821691505b602082108114156200019857620001976200019e565b5b50919050565b7f4e487b7100000000000000000000000000000000000000000000000000000000600052602260045260246000fd5b61325580620001dd6000396000f3fe608060405234801561001057600080fd5b50600436106101375760003560e01c80636352211e116100b85780639f181b5e1161007c5780639f181b5e14610398578063a22cb465146103b6578063b88d4fde146103d2578063c87b56dd146103ee578063e44dc2fa1461041e578063e985e9c51461044e57610137565b80636352211e146102ba57806370a08231146102ea5780637feafd201461031a5780638aa0fdad1461034a57806395d89b411461037a57610137565b806326aa7c58116100ff57806326aa7c58146101f257806327e7875a1461020e57806342842e0e1461023e5780634595958b1461025a57806346b73b201461028a57610137565b806301ffc9a71461013c57806306fdde031461016c578063081812fc1461018a578063095ea7b3146101ba57806323b872dd146101d6575b600080fd5b61015660048036038101906101519190612159565b61047e565b60405161016391906126ae565b60405180910390f35b610174610560565b60405161018191906126c9565b60405180910390f35b6101a4600480360381019061019f9190612217565b6105f2565b6040516101b19190612625565b60405180910390f35b6101d460048036038101906101cf919061211d565b610677565b005b6101f060048036038101906101eb9190612017565b61078f565b005b61020c6004803603810190610207919061211d565b6107ef565b005b61022860048036038101906102239190612240565b610867565b6040516102359190612625565b60405180910390f35b61025860048036038101906102539190612017565b6108b5565b005b610274600480360381019061026f919061211d565b6108d5565b60405161028191906126c9565b60405180910390f35b6102a4600480360381019061029f919061211d565b6109ab565b6040516102b191906126ae565b60405180910390f35b6102d460048036038101906102cf9190612217565b610aa3565b6040516102e19190612625565b60405180910390f35b61030460048036038101906102ff9190611fb2565b610b55565b60405161031191906128eb565b60405180910390f35b610334600480360381019061032f9190612217565b610c0d565b604051610341919061268c565b60405180910390f35b610364600480360381019061035f91906121ab565b610cae565b60405161037191906128eb565b60405180910390f35b610382610cf9565b60405161038f91906126c9565b60405180910390f35b6103a0610d8b565b6040516103ad91906128eb565b60405180910390f35b6103d060048036038101906103cb91906120e1565b610d91565b005b6103ec60048036038101906103e79190612066565b610da7565b005b61040860048036038101906104039190612217565b610e09565b60405161041591906126c9565b60405180910390f35b61043860048036038101906104339190612217565b610f5b565b60405161044591906128eb565b60405180910390f35b61046860048036038101906104639190611fdb565b610f7b565b60405161047591906126ae565b60405180910390f35b60007f80ac58cd000000000000000000000000000000000000000000000000000000007bffffffffffffffffffffffffffffffffffffffffffffffffffffffff1916827bffffffffffffffffffffffffffffffffffffffffffffffffffffffff1916148061054957507f5b5e139f000000000000000000000000000000000000000000000000000000007bffffffffffffffffffffffffffffffffffffffffffffffffffffffff1916827bffffffffffffffffffffffffffffffffffffffffffffffffffffffff1916145b8061055957506105588261100f565b5b9050919050565b60606000805461056f90612b7a565b80601f016020809104026020016040519081016040528092919081815260200182805461059b90612b7a565b80156105e85780601f106105bd576101008083540402835291602001916105e8565b820191906000526020600020905b8154815290600101906020018083116105cb57829003601f168201915b5050505050905090565b60006105fd82611079565b61063c576040517f08c379a00000000000000000000000000000000000000000000000000000000081526004016106339061286b565b60405180910390fd5b6004600083815260200190815260200160002060009054906101000a900473ffffffffffffffffffffffffffffffffffffffff169050919050565b600061068282610aa3565b90508073ffffffffffffffffffffffffffffffffffffffff168373ffffffffffffffffffffffffffffffffffffffff1614156106f3576040517f08c379a00000000000000000000000000000000000000000000000000000000081526004016106ea906128ab565b60405180910390fd5b8073ffffffffffffffffffffffffffffffffffffffff166107126110e5565b73ffffffffffffffffffffffffffffffffffffffff16148061074157506107408161073b6110e5565b610f7b565b5b610780576040517f08c379a0000000000000000000000000000000000000000000000000000000008152600401610777906127ab565b60405180910390fd5b61078a83836110ed565b505050565b6107a061079a6110e5565b826111a6565b6107df576040517f08c379a00000000000000000000000000000000000000000000000000000000081526004016107d6906128cb565b60405180910390fd5b6107ea838383611284565b505050565b60086000828152602001908152602001600020829080600181540180825580915050600190039060005260206000200160009091909190916101000a81548173ffffffffffffffffffffffffffffffffffffffff021916908373ffffffffffffffffffffffffffffffffffffffff1602179055505050565b6008602052816000526040600020818154811061088357600080fd5b906000526020600020016000915091509054906101000a900473ffffffffffffffffffffffffffffffffffffffff1681565b6108d083838360405180602001604052806000815250610da7565b505050565b60606108e183836109ab565b156109895760096000838152602001908152602001600020805461090490612b7a565b80601f016020809104026020016040519081016040528092919081815260200182805461093090612b7a565b801561097d5780601f106109525761010080835404028352916020019161097d565b820191906000526020600020905b81548152906001019060200180831161096057829003601f168201915b505050505090506109a5565b6040518060600160405280602181526020016131ff6021913990505b92915050565b600080600090505b6008600084815260200190815260200160002080549050811015610a97578373ffffffffffffffffffffffffffffffffffffffff16600860008581526020019081526020016000208281548110610a33577f4e487b7100000000000000000000000000000000000000000000000000000000600052603260045260246000fd5b9060005260206000200160009054906101000a900473ffffffffffffffffffffffffffffffffffffffff1673ffffffffffffffffffffffffffffffffffffffff161415610a84576001915050610a9d565b8080610a8f90612bdd565b9150506109b3565b50600090505b92915050565b6000806002600084815260200190815260200160002060009054906101000a900473ffffffffffffffffffffffffffffffffffffffff169050600073ffffffffffffffffffffffffffffffffffffffff168173ffffffffffffffffffffffffffffffffffffffff161415610b4c576040517f08c379a0000000000000000000000000000000000000000000000000000000008152600401610b43906127eb565b60405180910390fd5b80915050919050565b60008073ffffffffffffffffffffffffffffffffffffffff168273ffffffffffffffffffffffffffffffffffffffff161415610bc6576040517f08c379a0000000000000000000000000000000000000000000000000000000008152600401610bbd906127cb565b60405180910390fd5b600360008373ffffffffffffffffffffffffffffffffffffffff1673ffffffffffffffffffffffffffffffffffffffff168152602001908152602001600020549050919050565b606060086000838152602001908152602001600020805480602002602001604051908101604052809291908181526020018280548015610ca257602002820191906000526020600020905b8160009054906101000a900473ffffffffffffffffffffffffffffffffffffffff1673ffffffffffffffffffffffffffffffffffffffff1681526020019060010190808311610c58575b50505050509050919050565b6000600160076000828254610cc39190612a09565b92505081905550610cd6336007546114eb565b610ce260075484611509565b610cee6007548361157d565b600754905092915050565b606060018054610d0890612b7a565b80601f0160208091040260200160405190810160405280929190818152602001828054610d3490612b7a565b8015610d815780601f10610d5657610100808354040283529160200191610d81565b820191906000526020600020905b815481529060010190602001808311610d6457829003601f168201915b5050505050905090565b60075481565b610da3610d9c6110e5565b83836115a9565b5050565b610db8610db26110e5565b836111a6565b610df7576040517f08c379a0000000000000000000000000000000000000000000000000000000008152600401610dee906128cb565b60405180910390fd5b610e0384848484611716565b50505050565b6060610e1482611079565b610e53576040517f08c379a0000000000000000000000000000000000000000000000000000000008152600401610e4a9061284b565b60405180910390fd5b6000600660008481526020019081526020016000208054610e7390612b7a565b80601f0160208091040260200160405190810160405280929190818152602001828054610e9f90612b7a565b8015610eec5780601f10610ec157610100808354040283529160200191610eec565b820191906000526020600020905b815481529060010190602001808311610ecf57829003601f168201915b505050505090506000610efd611772565b9050600081511415610f13578192505050610f56565b600082511115610f48578082604051602001610f30929190612601565b60405160208183030381529060405292505050610f56565b610f5184611789565b925050505b919050565b600060086000838152602001908152602001600020805490509050919050565b6000600560008473ffffffffffffffffffffffffffffffffffffffff1673ffffffffffffffffffffffffffffffffffffffff16815260200190815260200160002060008373ffffffffffffffffffffffffffffffffffffffff1673ffffffffffffffffffffffffffffffffffffffff16815260200190815260200160002060009054906101000a900460ff16905092915050565b60007f01ffc9a7000000000000000000000000000000000000000000000000000000007bffffffffffffffffffffffffffffffffffffffffffffffffffffffff1916827bffffffffffffffffffffffffffffffffffffffffffffffffffffffff1916149050919050565b60008073ffffffffffffffffffffffffffffffffffffffff166002600084815260200190815260200160002060009054906101000a900473ffffffffffffffffffffffffffffffffffffffff1673ffffffffffffffffffffffffffffffffffffffff1614159050919050565b600033905090565b816004600083815260200190815260200160002060006101000a81548173ffffffffffffffffffffffffffffffffffffffff021916908373ffffffffffffffffffffffffffffffffffffffff160217905550808273ffffffffffffffffffffffffffffffffffffffff1661116083610aa3565b73ffffffffffffffffffffffffffffffffffffffff167f8c5be1e5ebec7d5bd14f71427d1e84f3dd0314c0f7b2291e5b200ac8c7c3b92560405160405180910390a45050565b60006111b182611079565b6111f0576040517f08c379a00000000000000000000000000000000000000000000000000000000081526004016111e79061278b565b60405180910390fd5b60006111fb83610aa3565b90508073ffffffffffffffffffffffffffffffffffffffff168473ffffffffffffffffffffffffffffffffffffffff16148061126a57508373ffffffffffffffffffffffffffffffffffffffff16611252846105f2565b73ffffffffffffffffffffffffffffffffffffffff16145b8061127b575061127a8185610f7b565b5b91505092915050565b8273ffffffffffffffffffffffffffffffffffffffff166112a482610aa3565b73ffffffffffffffffffffffffffffffffffffffff16146112fa576040517f08c379a00000000000000000000000000000000000000000000000000000000081526004016112f19061270b565b60405180910390fd5b600073ffffffffffffffffffffffffffffffffffffffff168273ffffffffffffffffffffffffffffffffffffffff16141561136a576040517f08c379a00000000000000000000000000000000000000000000000000000000081526004016113619061274b565b60405180910390fd5b611375838383611830565b6113806000826110ed565b6001600360008573ffffffffffffffffffffffffffffffffffffffff1673ffffffffffffffffffffffffffffffffffffffff16815260200190815260200160002060008282546113d09190612a90565b925050819055506001600360008473ffffffffffffffffffffffffffffffffffffffff1673ffffffffffffffffffffffffffffffffffffffff16815260200190815260200160002060008282546114279190612a09565b92505081905550816002600083815260200190815260200160002060006101000a81548173ffffffffffffffffffffffffffffffffffffffff021916908373ffffffffffffffffffffffffffffffffffffffff160217905550808273ffffffffffffffffffffffffffffffffffffffff168473ffffffffffffffffffffffffffffffffffffffff167fddf252ad1be2c89b69c2b068fc378daa952ba7f163c4a11628f55a4df523b3ef60405160405180910390a46114e6838383611835565b505050565b61150582826040518060200160405280600081525061183a565b5050565b61151282611079565b611551576040517f08c379a00000000000000000000000000000000000000000000000000000000081526004016115489061280b565b60405180910390fd5b80600660008481526020019081526020016000209080519060200190611578929190611dd6565b505050565b806009600084815260200190815260200160002090805190602001906115a4929190611dd6565b505050565b8173ffffffffffffffffffffffffffffffffffffffff168373ffffffffffffffffffffffffffffffffffffffff161415611618576040517f08c379a000000000000000000000000000000000000000000000000000000000815260040161160f9061276b565b60405180910390fd5b80600560008573ffffffffffffffffffffffffffffffffffffffff1673ffffffffffffffffffffffffffffffffffffffff16815260200190815260200160002060008473ffffffffffffffffffffffffffffffffffffffff1673ffffffffffffffffffffffffffffffffffffffff16815260200190815260200160002060006101000a81548160ff0219169083151502179055508173ffffffffffffffffffffffffffffffffffffffff168373ffffffffffffffffffffffffffffffffffffffff167f17307eab39ab6107e8899845ad3d59bd9653f200f220920489ca2b5937696c318360405161170991906126ae565b60405180910390a3505050565b611721848484611284565b61172d84848484611895565b61176c576040517f08c379a0000000000000000000000000000000000000000000000000000000008152600401611763906126eb565b60405180910390fd5b50505050565b606060405180602001604052806000815250905090565b606061179482611079565b6117d3576040517f08c379a00000000000000000000000000000000000000000000000000000000081526004016117ca9061288b565b60405180910390fd5b60006117dd611772565b905060008151116117fd5760405180602001604052806000815250611828565b8061180784611a2c565b604051602001611818929190612601565b6040516020818303038152906040525b915050919050565b505050565b505050565b6118448383611bd9565b6118516000848484611895565b611890576040517f08c379a0000000000000000000000000000000000000000000000000000000008152600401611887906126eb565b60405180910390fd5b505050565b60006118b68473ffffffffffffffffffffffffffffffffffffffff16611db3565b15611a1f578373ffffffffffffffffffffffffffffffffffffffff1663150b7a026118df6110e5565b8786866040518563ffffffff1660e01b81526004016119019493929190612640565b602060405180830381600087803b15801561191b57600080fd5b505af192505050801561194c57506040513d601f19601f820116820180604052508101906119499190612182565b60015b6119cf573d806000811461197c576040519150601f19603f3d011682016040523d82523d6000602084013e611981565b606091505b506000815114156119c7576040517f08c379a00000000000000000000000000000000000000000000000000000000081526004016119be906126eb565b60405180910390fd5b805181602001fd5b63150b7a0260e01b7bffffffffffffffffffffffffffffffffffffffffffffffffffffffff1916817bffffffffffffffffffffffffffffffffffffffffffffffffffffffff191614915050611a24565b600190505b949350505050565b60606000821415611a74576040518060400160405280600181526020017f30000000000000000000000000000000000000000000000000000000000000008152509050611bd4565b600082905060005b60008214611aa6578080611a8f90612bdd565b915050600a82611a9f9190612a5f565b9150611a7c565b60008167ffffffffffffffff811115611ae8577f4e487b7100000000000000000000000000000000000000000000000000000000600052604160045260246000fd5b6040519080825280601f01601f191660200182016040528015611b1a5781602001600182028036833780820191505090505b5090505b60008514611bcd57600182611b339190612a90565b9150600a85611b429190612c26565b6030611b4e9190612a09565b60f81b818381518110611b8a577f4e487b7100000000000000000000000000000000000000000000000000000000600052603260045260246000fd5b60200101907effffffffffffffffffffffffffffffffffffffffffffffffffffffffffffff1916908160001a905350600a85611bc69190612a5f565b9450611b1e565b8093505050505b919050565b600073ffffffffffffffffffffffffffffffffffffffff168273ffffffffffffffffffffffffffffffffffffffff161415611c49576040517f08c379a0000000000000000000000000000000000000000000000000000000008152600401611c409061282b565b60405180910390fd5b611c5281611079565b15611c92576040517f08c379a0000000000000000000000000000000000000000000000000000000008152600401611c899061272b565b60405180910390fd5b611c9e60008383611830565b6001600360008473ffffffffffffffffffffffffffffffffffffffff1673ffffffffffffffffffffffffffffffffffffffff1681526020019081526020016000206000828254611cee9190612a09565b92505081905550816002600083815260200190815260200160002060006101000a81548173ffffffffffffffffffffffffffffffffffffffff021916908373ffffffffffffffffffffffffffffffffffffffff160217905550808273ffffffffffffffffffffffffffffffffffffffff16600073ffffffffffffffffffffffffffffffffffffffff167fddf252ad1be2c89b69c2b068fc378daa952ba7f163c4a11628f55a4df523b3ef60405160405180910390a4611daf60008383611835565b5050565b6000808273ffffffffffffffffffffffffffffffffffffffff163b119050919050565b828054611de290612b7a565b90600052602060002090601f016020900481019282611e045760008555611e4b565b82601f10611e1d57805160ff1916838001178555611e4b565b82800160010185558215611e4b579182015b82811115611e4a578251825591602001919060010190611e2f565b5b509050611e589190611e5c565b5090565b5b80821115611e75576000816000905550600101611e5d565b5090565b6000611e8c611e878461292b565b612906565b905082815260208101848484011115611ea457600080fd5b611eaf848285612b38565b509392505050565b6000611eca611ec58461295c565b612906565b905082815260208101848484011115611ee257600080fd5b611eed848285612b38565b509392505050565b600081359050611f04816131a2565b92915050565b600081359050611f19816131b9565b92915050565b600081359050611f2e816131d0565b92915050565b600081519050611f43816131d0565b92915050565b600082601f830112611f5a57600080fd5b8135611f6a848260208601611e79565b91505092915050565b600082601f830112611f8457600080fd5b8135611f94848260208601611eb7565b91505092915050565b600081359050611fac816131e7565b92915050565b600060208284031215611fc457600080fd5b6000611fd284828501611ef5565b91505092915050565b60008060408385031215611fee57600080fd5b6000611ffc85828601611ef5565b925050602061200d85828601611ef5565b9150509250929050565b60008060006060848603121561202c57600080fd5b600061203a86828701611ef5565b935050602061204b86828701611ef5565b925050604061205c86828701611f9d565b9150509250925092565b6000806000806080858703121561207c57600080fd5b600061208a87828801611ef5565b945050602061209b87828801611ef5565b93505060406120ac87828801611f9d565b925050606085013567ffffffffffffffff8111156120c957600080fd5b6120d587828801611f49565b91505092959194509250565b600080604083850312156120f457600080fd5b600061210285828601611ef5565b925050602061211385828601611f0a565b9150509250929050565b6000806040838503121561213057600080fd5b600061213e85828601611ef5565b925050602061214f85828601611f9d565b9150509250929050565b60006020828403121561216b57600080fd5b600061217984828501611f1f565b91505092915050565b60006020828403121561219457600080fd5b60006121a284828501611f34565b91505092915050565b600080604083850312156121be57600080fd5b600083013567ffffffffffffffff8111156121d857600080fd5b6121e485828601611f73565b925050602083013567ffffffffffffffff81111561220157600080fd5b61220d85828601611f73565b9150509250929050565b60006020828403121561222957600080fd5b600061223784828501611f9d565b91505092915050565b6000806040838503121561225357600080fd5b600061226185828601611f9d565b925050602061227285828601611f9d565b9150509250929050565b60006122888383612294565b60208301905092915050565b61229d81612ac4565b82525050565b6122ac81612ac4565b82525050565b60006122bd8261299d565b6122c781856129cb565b93506122d28361298d565b8060005b838110156123035781516122ea888261227c565b97506122f5836129be565b9250506001810190506122d6565b5085935050505092915050565b61231981612ad6565b82525050565b600061232a826129a8565b61233481856129dc565b9350612344818560208601612b47565b61234d81612d13565b840191505092915050565b6000612363826129b3565b61236d81856129ed565b935061237d818560208601612b47565b61238681612d13565b840191505092915050565b600061239c826129b3565b6123a681856129fe565b93506123b6818560208601612b47565b80840191505092915050565b60006123cf6032836129ed565b91506123da82612d24565b604082019050919050565b60006123f26025836129ed565b91506123fd82612d73565b604082019050919050565b6000612415601c836129ed565b915061242082612dc2565b602082019050919050565b60006124386024836129ed565b915061244382612deb565b604082019050919050565b600061245b6019836129ed565b915061246682612e3a565b602082019050919050565b600061247e602c836129ed565b915061248982612e63565b604082019050919050565b60006124a16038836129ed565b91506124ac82612eb2565b604082019050919050565b60006124c4602a836129ed565b91506124cf82612f01565b604082019050919050565b60006124e76029836129ed565b91506124f282612f50565b604082019050919050565b600061250a602e836129ed565b915061251582612f9f565b604082019050919050565b600061252d6020836129ed565b915061253882612fee565b602082019050919050565b60006125506031836129ed565b915061255b82613017565b604082019050919050565b6000612573602c836129ed565b915061257e82613066565b604082019050919050565b6000612596602f836129ed565b91506125a1826130b5565b604082019050919050565b60006125b96021836129ed565b91506125c482613104565b604082019050919050565b60006125dc6031836129ed565b91506125e782613153565b604082019050919050565b6125fb81612b2e565b82525050565b600061260d8285612391565b91506126198284612391565b91508190509392505050565b600060208201905061263a60008301846122a3565b92915050565b600060808201905061265560008301876122a3565b61266260208301866122a3565b61266f60408301856125f2565b8181036060830152612681818461231f565b905095945050505050565b600060208201905081810360008301526126a681846122b2565b905092915050565b60006020820190506126c36000830184612310565b92915050565b600060208201905081810360008301526126e38184612358565b905092915050565b60006020820190508181036000830152612704816123c2565b9050919050565b60006020820190508181036000830152612724816123e5565b9050919050565b6000602082019050818103600083015261274481612408565b9050919050565b600060208201905081810360008301526127648161242b565b9050919050565b600060208201905081810360008301526127848161244e565b9050919050565b600060208201905081810360008301526127a481612471565b9050919050565b600060208201905081810360008301526127c481612494565b9050919050565b600060208201905081810360008301526127e4816124b7565b9050919050565b60006020820190508181036000830152612804816124da565b9050919050565b60006020820190508181036000830152612824816124fd565b9050919050565b6000602082019050818103600083015261284481612520565b9050919050565b6000602082019050818103600083015261286481612543565b9050919050565b6000602082019050818103600083015261288481612566565b9050919050565b600060208201905081810360008301526128a481612589565b9050919050565b600060208201905081810360008301526128c4816125ac565b9050919050565b600060208201905081810360008301526128e4816125cf565b9050919050565b600060208201905061290060008301846125f2565b92915050565b6000612910612921565b905061291c8282612bac565b919050565b6000604051905090565b600067ffffffffffffffff82111561294657612945612ce4565b5b61294f82612d13565b9050602081019050919050565b600067ffffffffffffffff82111561297757612976612ce4565b5b61298082612d13565b9050602081019050919050565b6000819050602082019050919050565b600081519050919050565b600081519050919050565b600081519050919050565b6000602082019050919050565b600082825260208201905092915050565b600082825260208201905092915050565b600082825260208201905092915050565b600081905092915050565b6000612a1482612b2e565b9150612a1f83612b2e565b9250827fffffffffffffffffffffffffffffffffffffffffffffffffffffffffffffffff03821115612a5457612a53612c57565b5b828201905092915050565b6000612a6a82612b2e565b9150612a7583612b2e565b925082612a8557612a84612c86565b5b828204905092915050565b6000612a9b82612b2e565b9150612aa683612b2e565b925082821015612ab957612ab8612c57565b5b828203905092915050565b6000612acf82612b0e565b9050919050565b60008115159050919050565b60007fffffffff0000000000000000000000000000000000000000000000000000000082169050919050565b600073ffffffffffffffffffffffffffffffffffffffff82169050919050565b6000819050919050565b82818337600083830152505050565b60005b83811015612b65578082015181840152602081019050612b4a565b83811115612b74576000848401525b50505050565b60006002820490506001821680612b9257607f821691505b60208210811415612ba657612ba5612cb5565b5b50919050565b612bb582612d13565b810181811067ffffffffffffffff82111715612bd457612bd3612ce4565b5b80604052505050565b6000612be882612b2e565b91507fffffffffffffffffffffffffffffffffffffffffffffffffffffffffffffffff821415612c1b57612c1a612c57565b5b600182019050919050565b6000612c3182612b2e565b9150612c3c83612b2e565b925082612c4c57612c4b612c86565b5b828206905092915050565b7f4e487b7100000000000000000000000000000000000000000000000000000000600052601160045260246000fd5b7f4e487b7100000000000000000000000000000000000000000000000000000000600052601260045260246000fd5b7f4e487b7100000000000000000000000000000000000000000000000000000000600052602260045260246000fd5b7f4e487b7100000000000000000000000000000000000000000000000000000000600052604160045260246000fd5b6000601f19601f8301169050919050565b7f4552433732313a207472616e7366657220746f206e6f6e20455243373231526560008201527f63656976657220696d706c656d656e7465720000000000000000000000000000602082015250565b7f4552433732313a207472616e736665722066726f6d20696e636f72726563742060008201527f6f776e6572000000000000000000000000000000000000000000000000000000602082015250565b7f4552433732313a20746f6b656e20616c7265616479206d696e74656400000000600082015250565b7f4552433732313a207472616e7366657220746f20746865207a65726f2061646460008201527f7265737300000000000000000000000000000000000000000000000000000000602082015250565b7f4552433732313a20617070726f766520746f2063616c6c657200000000000000600082015250565b7f4552433732313a206f70657261746f7220717565727920666f72206e6f6e657860008201527f697374656e7420746f6b656e0000000000000000000000000000000000000000602082015250565b7f4552433732313a20617070726f76652063616c6c6572206973206e6f74206f7760008201527f6e6572206e6f7220617070726f76656420666f7220616c6c0000000000000000602082015250565b7f4552433732313a2062616c616e636520717565727920666f7220746865207a6560008201527f726f206164647265737300000000000000000000000000000000000000000000602082015250565b7f4552433732313a206f776e657220717565727920666f72206e6f6e657869737460008201527f656e7420746f6b656e0000000000000000000000000000000000000000000000602082015250565b7f45524337323155524953746f726167653a2055524920736574206f66206e6f6e60008201527f6578697374656e7420746f6b656e000000000000000000000000000000000000602082015250565b7f4552433732313a206d696e7420746f20746865207a65726f2061646472657373600082015250565b7f45524337323155524953746f726167653a2055524920717565727920666f722060008201527f6e6f6e6578697374656e7420746f6b656e000000000000000000000000000000602082015250565b7f4552433732313a20617070726f76656420717565727920666f72206e6f6e657860008201527f697374656e7420746f6b656e0000000000000000000000000000000000000000602082015250565b7f4552433732314d657461646174613a2055524920717565727920666f72206e6f60008201527f6e6578697374656e7420746f6b656e0000000000000000000000000000000000602082015250565b7f4552433732313a20617070726f76616c20746f2063757272656e74206f776e6560008201527f7200000000000000000000000000000000000000000000000000000000000000602082015250565b7f4552433732313a207472616e736665722063616c6c6572206973206e6f74206f60008201527f776e6572206e6f7220617070726f766564000000000000000000000000000000602082015250565b6131ab81612ac4565b81146131b657600080fd5b50565b6131c281612ad6565b81146131cd57600080fd5b50565b6131d981612ae2565b81146131e457600080fd5b50565b6131f081612b2e565b81146131fb57600080fd5b5056fe5573657220686173206e6f2061636365737320666f72207468697320746f6b656ea264697066735822122083443a743fa1ed5779862c748f16695b50885f296e9f3541b4e334c48efa19f764736f6c63430008040033",
  "linkReferences": {},
  "deployedLinkReferences": {}
}