{
  "_format": "hh-sol-artifact-1",
  "contractName": "NFT",
  "sourceName": "src/backend/contracts/NFT.sol",
  "abi": [
    {
      "inputs": [],
      "stateMutability": "nonpayable",
      "type": "constructor"
    },
    {
      "anonymous": false,
      "inputs": [
        {
          "indexed": true,
          "internalType": "address",
          "name": "owner",
          "type": "address"
        },
        {
          "indexed": true,
          "internalType": "address",
          "name": "approved",
          "type": "address"
        },
        {
          "indexed": true,
          "internalType": "uint256",
          "name": "tokenId",
          "type": "uint256"
        }
      ],
      "name": "Approval",
      "type": "event"
    },
    {
      "anonymous": false,
      "inputs": [
        {
          "indexed": true,
          "internalType": "address",
          "name": "owner",
          "type": "address"
        },
        {
          "indexed": true,
          "internalType": "address",
          "name": "operator",
          "type": "address"
        },
        {
          "indexed": false,
          "internalType": "bool",
          "name": "approved",
          "type": "bool"
        }
      ],
      "name": "ApprovalForAll",
      "type": "event"
    },
    {
      "anonymous": false,
      "inputs": [
        {
          "indexed": true,
          "internalType": "address",
          "name": "from",
          "type": "address"
        },
        {
          "indexed": true,
          "internalType": "address",
          "name": "to",
          "type": "address"
        },
        {
          "indexed": true,
          "internalType": "uint256",
          "name": "tokenId",
          "type": "uint256"
        }
      ],
      "name": "Transfer",
      "type": "event"
    },
    {
      "inputs": [
        {
          "internalType": "address",
          "name": "_user",
          "type": "address"
        },
        {
          "internalType": "uint256",
          "name": "_tokenId",
          "type": "uint256"
        }
      ],
      "name": "addBuyer",
      "outputs": [],
      "stateMutability": "nonpayable",
      "type": "function"
    },
    {
      "inputs": [
        {
          "internalType": "address",
          "name": "to",
          "type": "address"
        },
        {
          "internalType": "uint256",
          "name": "tokenId",
          "type": "uint256"
        }
      ],
      "name": "approve",
      "outputs": [],
      "stateMutability": "nonpayable",
      "type": "function"
    },
    {
      "inputs": [
        {
          "internalType": "address",
          "name": "owner",
          "type": "address"
        }
      ],
      "name": "balanceOf",
      "outputs": [
        {
          "internalType": "uint256",
          "name": "",
          "type": "uint256"
        }
      ],
      "stateMutability": "view",
      "type": "function"
    },
    {
      "inputs": [
        {
          "internalType": "uint256",
          "name": "",
          "type": "uint256"
        },
        {
          "internalType": "uint256",
          "name": "",
          "type": "uint256"
        }
      ],
      "name": "buyers",
      "outputs": [
        {
          "internalType": "address",
          "name": "",
          "type": "address"
        }
      ],
      "stateMutability": "view",
      "type": "function"
    },
    {
      "inputs": [
        {
          "internalType": "uint256",
          "name": "tokenId",
          "type": "uint256"
        }
      ],
      "name": "getApproved",
      "outputs": [
        {
          "internalType": "address",
          "name": "",
          "type": "address"
        }
      ],
      "stateMutability": "view",
      "type": "function"
    },
    {
      "inputs": [
        {
          "internalType": "uint256",
          "name": "_tokenId",
          "type": "uint256"
        }
      ],
      "name": "getBuyers",
      "outputs": [
        {
          "internalType": "address[]",
          "name": "",
          "type": "address[]"
        }
      ],
      "stateMutability": "view",
      "type": "function"
    },
    {
      "inputs": [
        {
          "internalType": "uint256",
          "name": "_tokenId",
          "type": "uint256"
        }
      ],
      "name": "getBuyersCount",
      "outputs": [
        {
          "internalType": "uint256",
          "name": "",
          "type": "uint256"
        }
      ],
      "stateMutability": "view",
      "type": "function"
    },
    {
      "inputs": [
        {
          "internalType": "address",
          "name": "owner",
          "type": "address"
        },
        {
          "internalType": "address",
          "name": "operator",
          "type": "address"
        }
      ],
      "name": "isApprovedForAll",
      "outputs": [
        {
          "internalType": "bool",
          "name": "",
          "type": "bool"
        }
      ],
      "stateMutability": "view",
      "type": "function"
    },
    {
      "inputs": [
        {
          "internalType": "string",
          "name": "_tokenURI",
          "type": "string"
        }
      ],
      "name": "mint",
      "outputs": [
        {
          "internalType": "uint256",
          "name": "",
          "type": "uint256"
        }
      ],
      "stateMutability": "nonpayable",
      "type": "function"
    },
    {
      "inputs": [],
      "name": "name",
      "outputs": [
        {
          "internalType": "string",
          "name": "",
          "type": "string"
        }
      ],
      "stateMutability": "view",
      "type": "function"
    },
    {
      "inputs": [
        {
          "internalType": "uint256",
          "name": "tokenId",
          "type": "uint256"
        }
      ],
      "name": "ownerOf",
      "outputs": [
        {
          "internalType": "address",
          "name": "",
          "type": "address"
        }
      ],
      "stateMutability": "view",
      "type": "function"
    },
    {
      "inputs": [
        {
          "internalType": "address",
          "name": "from",
          "type": "address"
        },
        {
          "internalType": "address",
          "name": "to",
          "type": "address"
        },
        {
          "internalType": "uint256",
          "name": "tokenId",
          "type": "uint256"
        }
      ],
      "name": "safeTransferFrom",
      "outputs": [],
      "stateMutability": "nonpayable",
      "type": "function"
    },
    {
      "inputs": [
        {
          "internalType": "address",
          "name": "from",
          "type": "address"
        },
        {
          "internalType": "address",
          "name": "to",
          "type": "address"
        },
        {
          "internalType": "uint256",
          "name": "tokenId",
          "type": "uint256"
        },
        {
          "internalType": "bytes",
          "name": "_data",
          "type": "bytes"
        }
      ],
      "name": "safeTransferFrom",
      "outputs": [],
      "stateMutability": "nonpayable",
      "type": "function"
    },
    {
      "inputs": [
        {
          "internalType": "address",
          "name": "operator",
          "type": "address"
        },
        {
          "internalType": "bool",
          "name": "approved",
          "type": "bool"
        }
      ],
      "name": "setApprovalForAll",
      "outputs": [],
      "stateMutability": "nonpayable",
      "type": "function"
    },
    {
      "inputs": [
        {
          "internalType": "bytes4",
          "name": "interfaceId",
          "type": "bytes4"
        }
      ],
      "name": "supportsInterface",
      "outputs": [
        {
          "internalType": "bool",
          "name": "",
          "type": "bool"
        }
      ],
      "stateMutability": "view",
      "type": "function"
    },
    {
      "inputs": [],
      "name": "symbol",
      "outputs": [
        {
          "internalType": "string",
          "name": "",
          "type": "string"
        }
      ],
      "stateMutability": "view",
      "type": "function"
    },
    {
      "inputs": [],
      "name": "tokenCount",
      "outputs": [
        {
          "internalType": "uint256",
          "name": "",
          "type": "uint256"
        }
      ],
      "stateMutability": "view",
      "type": "function"
    },
    {
      "inputs": [
        {
          "internalType": "uint256",
          "name": "tokenId",
          "type": "uint256"
        }
      ],
      "name": "tokenURI",
      "outputs": [
        {
          "internalType": "string",
          "name": "",
          "type": "string"
        }
      ],
      "stateMutability": "view",
      "type": "function"
    },
    {
      "inputs": [
        {
          "internalType": "address",
          "name": "from",
          "type": "address"
        },
        {
          "internalType": "address",
          "name": "to",
          "type": "address"
        },
        {
          "internalType": "uint256",
          "name": "tokenId",
          "type": "uint256"
        }
      ],
      "name": "transferFrom",
      "outputs": [],
      "stateMutability": "nonpayable",
      "type": "function"
    },
    {
      "inputs": [
        {
          "internalType": "address",
          "name": "_user",
          "type": "address"
        },
        {
          "internalType": "uint256",
          "name": "_tokenId",
          "type": "uint256"
        }
      ],
      "name": "userHasBoughtToken",
      "outputs": [
        {
          "internalType": "bool",
          "name": "",
          "type": "bool"
        }
      ],
      "stateMutability": "view",
      "type": "function"
    }
  ],
  "bytecode": "0x60806040523480156200001157600080fd5b506040518060400160405280601681526020017f417274697374204d61726b6574706c616365204e4654000000000000000000008152506040518060400160405280600381526020017f414d4e0000000000000000000000000000000000000000000000000000000000815250816000908051906020019062000096929190620000b8565b508060019080519060200190620000af929190620000b8565b505050620001cd565b828054620000c69062000168565b90600052602060002090601f016020900481019282620000ea576000855562000136565b82601f106200010557805160ff191683800117855562000136565b8280016001018555821562000136579182015b828111156200013557825182559160200191906001019062000118565b5b50905062000145919062000149565b5090565b5b80821115620001645760008160009055506001016200014a565b5090565b600060028204905060018216806200018157607f821691505b602082108114156200019857620001976200019e565b5b50919050565b7f4e487b7100000000000000000000000000000000000000000000000000000000600052602260045260246000fd5b6130bf80620001dd6000396000f3fe608060405234801561001057600080fd5b506004361061012c5760003560e01c806370a08231116100ad578063b88d4fde11610071578063b88d4fde14610367578063c87b56dd14610383578063d85d3d27146103b3578063e44dc2fa146103e3578063e985e9c5146104135761012c565b806370a08231146102af5780637feafd20146102df57806395d89b411461030f5780639f181b5e1461032d578063a22cb4651461034b5761012c565b806326aa7c58116100f457806326aa7c58146101e757806327e7875a1461020357806342842e0e1461023357806346b73b201461024f5780636352211e1461027f5761012c565b806301ffc9a71461013157806306fdde0314610161578063081812fc1461017f578063095ea7b3146101af57806323b872dd146101cb575b600080fd5b61014b6004803603810190610146919061200f565b610443565b6040516101589190612539565b60405180910390f35b610169610525565b6040516101769190612554565b60405180910390f35b610199600480360381019061019491906120a2565b6105b7565b6040516101a691906124b0565b60405180910390f35b6101c960048036038101906101c49190611fd3565b61063c565b005b6101e560048036038101906101e09190611ecd565b610754565b005b61020160048036038101906101fc9190611fd3565b6107b4565b005b61021d600480360381019061021891906120cb565b61082c565b60405161022a91906124b0565b60405180910390f35b61024d60048036038101906102489190611ecd565b61087a565b005b61026960048036038101906102649190611fd3565b61089a565b6040516102769190612539565b60405180910390f35b610299600480360381019061029491906120a2565b610992565b6040516102a691906124b0565b60405180910390f35b6102c960048036038101906102c49190611e68565b610a44565b6040516102d69190612776565b60405180910390f35b6102f960048036038101906102f491906120a2565b610afc565b6040516103069190612517565b60405180910390f35b610317610b9d565b6040516103249190612554565b60405180910390f35b610335610c2f565b6040516103429190612776565b60405180910390f35b61036560048036038101906103609190611f97565b610c35565b005b610381600480360381019061037c9190611f1c565b610c4b565b005b61039d600480360381019061039891906120a2565b610cad565b6040516103aa9190612554565b60405180910390f35b6103cd60048036038101906103c89190612061565b610dff565b6040516103da9190612776565b60405180910390f35b6103fd60048036038101906103f891906120a2565b610e3d565b60405161040a9190612776565b60405180910390f35b61042d60048036038101906104289190611e91565b610e5d565b60405161043a9190612539565b60405180910390f35b60007f80ac58cd000000000000000000000000000000000000000000000000000000007bffffffffffffffffffffffffffffffffffffffffffffffffffffffff1916827bffffffffffffffffffffffffffffffffffffffffffffffffffffffff1916148061050e57507f5b5e139f000000000000000000000000000000000000000000000000000000007bffffffffffffffffffffffffffffffffffffffffffffffffffffffff1916827bffffffffffffffffffffffffffffffffffffffffffffffffffffffff1916145b8061051e575061051d82610ef1565b5b9050919050565b60606000805461053490612a05565b80601f016020809104026020016040519081016040528092919081815260200182805461056090612a05565b80156105ad5780601f10610582576101008083540402835291602001916105ad565b820191906000526020600020905b81548152906001019060200180831161059057829003601f168201915b5050505050905090565b60006105c282610f5b565b610601576040517f08c379a00000000000000000000000000000000000000000000000000000000081526004016105f8906126f6565b60405180910390fd5b6004600083815260200190815260200160002060009054906101000a900473ffffffffffffffffffffffffffffffffffffffff169050919050565b600061064782610992565b90508073ffffffffffffffffffffffffffffffffffffffff168373ffffffffffffffffffffffffffffffffffffffff1614156106b8576040517f08c379a00000000000000000000000000000000000000000000000000000000081526004016106af90612736565b60405180910390fd5b8073ffffffffffffffffffffffffffffffffffffffff166106d7610fc7565b73ffffffffffffffffffffffffffffffffffffffff161480610706575061070581610700610fc7565b610e5d565b5b610745576040517f08c379a000000000000000000000000000000000000000000000000000000000815260040161073c90612636565b60405180910390fd5b61074f8383610fcf565b505050565b61076561075f610fc7565b82611088565b6107a4576040517f08c379a000000000000000000000000000000000000000000000000000000000815260040161079b90612756565b60405180910390fd5b6107af838383611166565b505050565b60086000828152602001908152602001600020829080600181540180825580915050600190039060005260206000200160009091909190916101000a81548173ffffffffffffffffffffffffffffffffffffffff021916908373ffffffffffffffffffffffffffffffffffffffff1602179055505050565b6008602052816000526040600020818154811061084857600080fd5b906000526020600020016000915091509054906101000a900473ffffffffffffffffffffffffffffffffffffffff1681565b61089583838360405180602001604052806000815250610c4b565b505050565b600080600090505b6008600084815260200190815260200160002080549050811015610986578373ffffffffffffffffffffffffffffffffffffffff16600860008581526020019081526020016000208281548110610922577f4e487b7100000000000000000000000000000000000000000000000000000000600052603260045260246000fd5b9060005260206000200160009054906101000a900473ffffffffffffffffffffffffffffffffffffffff1673ffffffffffffffffffffffffffffffffffffffff16141561097357600191505061098c565b808061097e90612a68565b9150506108a2565b50600090505b92915050565b6000806002600084815260200190815260200160002060009054906101000a900473ffffffffffffffffffffffffffffffffffffffff169050600073ffffffffffffffffffffffffffffffffffffffff168173ffffffffffffffffffffffffffffffffffffffff161415610a3b576040517f08c379a0000000000000000000000000000000000000000000000000000000008152600401610a3290612676565b60405180910390fd5b80915050919050565b60008073ffffffffffffffffffffffffffffffffffffffff168273ffffffffffffffffffffffffffffffffffffffff161415610ab5576040517f08c379a0000000000000000000000000000000000000000000000000000000008152600401610aac90612656565b60405180910390fd5b600360008373ffffffffffffffffffffffffffffffffffffffff1673ffffffffffffffffffffffffffffffffffffffff168152602001908152602001600020549050919050565b606060086000838152602001908152602001600020805480602002602001604051908101604052809291908181526020018280548015610b9157602002820191906000526020600020905b8160009054906101000a900473ffffffffffffffffffffffffffffffffffffffff1673ffffffffffffffffffffffffffffffffffffffff1681526020019060010190808311610b47575b50505050509050919050565b606060018054610bac90612a05565b80601f0160208091040260200160405190810160405280929190818152602001828054610bd890612a05565b8015610c255780601f10610bfa57610100808354040283529160200191610c25565b820191906000526020600020905b815481529060010190602001808311610c0857829003601f168201915b5050505050905090565b60075481565b610c47610c40610fc7565b83836113cd565b5050565b610c5c610c56610fc7565b83611088565b610c9b576040517f08c379a0000000000000000000000000000000000000000000000000000000008152600401610c9290612756565b60405180910390fd5b610ca78484848461153a565b50505050565b6060610cb882610f5b565b610cf7576040517f08c379a0000000000000000000000000000000000000000000000000000000008152600401610cee906126d6565b60405180910390fd5b6000600660008481526020019081526020016000208054610d1790612a05565b80601f0160208091040260200160405190810160405280929190818152602001828054610d4390612a05565b8015610d905780601f10610d6557610100808354040283529160200191610d90565b820191906000526020600020905b815481529060010190602001808311610d7357829003601f168201915b505050505090506000610da1611596565b9050600081511415610db7578192505050610dfa565b600082511115610dec578082604051602001610dd492919061248c565b60405160208183030381529060405292505050610dfa565b610df5846115ad565b925050505b919050565b6000600160076000828254610e149190612894565b92505081905550610e2733600754611654565b610e3360075483611672565b6007549050919050565b600060086000838152602001908152602001600020805490509050919050565b6000600560008473ffffffffffffffffffffffffffffffffffffffff1673ffffffffffffffffffffffffffffffffffffffff16815260200190815260200160002060008373ffffffffffffffffffffffffffffffffffffffff1673ffffffffffffffffffffffffffffffffffffffff16815260200190815260200160002060009054906101000a900460ff16905092915050565b60007f01ffc9a7000000000000000000000000000000000000000000000000000000007bffffffffffffffffffffffffffffffffffffffffffffffffffffffff1916827bffffffffffffffffffffffffffffffffffffffffffffffffffffffff1916149050919050565b60008073ffffffffffffffffffffffffffffffffffffffff166002600084815260200190815260200160002060009054906101000a900473ffffffffffffffffffffffffffffffffffffffff1673ffffffffffffffffffffffffffffffffffffffff1614159050919050565b600033905090565b816004600083815260200190815260200160002060006101000a81548173ffffffffffffffffffffffffffffffffffffffff021916908373ffffffffffffffffffffffffffffffffffffffff160217905550808273ffffffffffffffffffffffffffffffffffffffff1661104283610992565b73ffffffffffffffffffffffffffffffffffffffff167f8c5be1e5ebec7d5bd14f71427d1e84f3dd0314c0f7b2291e5b200ac8c7c3b92560405160405180910390a45050565b600061109382610f5b565b6110d2576040517f08c379a00000000000000000000000000000000000000000000000000000000081526004016110c990612616565b60405180910390fd5b60006110dd83610992565b90508073ffffffffffffffffffffffffffffffffffffffff168473ffffffffffffffffffffffffffffffffffffffff16148061114c57508373ffffffffffffffffffffffffffffffffffffffff16611134846105b7565b73ffffffffffffffffffffffffffffffffffffffff16145b8061115d575061115c8185610e5d565b5b91505092915050565b8273ffffffffffffffffffffffffffffffffffffffff1661118682610992565b73ffffffffffffffffffffffffffffffffffffffff16146111dc576040517f08c379a00000000000000000000000000000000000000000000000000000000081526004016111d390612596565b60405180910390fd5b600073ffffffffffffffffffffffffffffffffffffffff168273ffffffffffffffffffffffffffffffffffffffff16141561124c576040517f08c379a0000000000000000000000000000000000000000000000000000000008152600401611243906125d6565b60405180910390fd5b6112578383836116e6565b611262600082610fcf565b6001600360008573ffffffffffffffffffffffffffffffffffffffff1673ffffffffffffffffffffffffffffffffffffffff16815260200190815260200160002060008282546112b2919061291b565b925050819055506001600360008473ffffffffffffffffffffffffffffffffffffffff1673ffffffffffffffffffffffffffffffffffffffff16815260200190815260200160002060008282546113099190612894565b92505081905550816002600083815260200190815260200160002060006101000a81548173ffffffffffffffffffffffffffffffffffffffff021916908373ffffffffffffffffffffffffffffffffffffffff160217905550808273ffffffffffffffffffffffffffffffffffffffff168473ffffffffffffffffffffffffffffffffffffffff167fddf252ad1be2c89b69c2b068fc378daa952ba7f163c4a11628f55a4df523b3ef60405160405180910390a46113c88383836116eb565b505050565b8173ffffffffffffffffffffffffffffffffffffffff168373ffffffffffffffffffffffffffffffffffffffff16141561143c576040517f08c379a0000000000000000000000000000000000000000000000000000000008152600401611433906125f6565b60405180910390fd5b80600560008573ffffffffffffffffffffffffffffffffffffffff1673ffffffffffffffffffffffffffffffffffffffff16815260200190815260200160002060008473ffffffffffffffffffffffffffffffffffffffff1673ffffffffffffffffffffffffffffffffffffffff16815260200190815260200160002060006101000a81548160ff0219169083151502179055508173ffffffffffffffffffffffffffffffffffffffff168373ffffffffffffffffffffffffffffffffffffffff167f17307eab39ab6107e8899845ad3d59bd9653f200f220920489ca2b5937696c318360405161152d9190612539565b60405180910390a3505050565b611545848484611166565b611551848484846116f0565b611590576040517f08c379a000000000000000000000000000000000000000000000000000000000815260040161158790612576565b60405180910390fd5b50505050565b606060405180602001604052806000815250905090565b60606115b882610f5b565b6115f7576040517f08c379a00000000000000000000000000000000000000000000000000000000081526004016115ee90612716565b60405180910390fd5b6000611601611596565b90506000815111611621576040518060200160405280600081525061164c565b8061162b84611887565b60405160200161163c92919061248c565b6040516020818303038152906040525b915050919050565b61166e828260405180602001604052806000815250611a34565b5050565b61167b82610f5b565b6116ba576040517f08c379a00000000000000000000000000000000000000000000000000000000081526004016116b190612696565b60405180910390fd5b806006600084815260200190815260200160002090805190602001906116e1929190611c8c565b505050565b505050565b505050565b60006117118473ffffffffffffffffffffffffffffffffffffffff16611a8f565b1561187a578373ffffffffffffffffffffffffffffffffffffffff1663150b7a0261173a610fc7565b8786866040518563ffffffff1660e01b815260040161175c94939291906124cb565b602060405180830381600087803b15801561177657600080fd5b505af19250505080156117a757506040513d601f19601f820116820180604052508101906117a49190612038565b60015b61182a573d80600081146117d7576040519150601f19603f3d011682016040523d82523d6000602084013e6117dc565b606091505b50600081511415611822576040517f08c379a000000000000000000000000000000000000000000000000000000000815260040161181990612576565b60405180910390fd5b805181602001fd5b63150b7a0260e01b7bffffffffffffffffffffffffffffffffffffffffffffffffffffffff1916817bffffffffffffffffffffffffffffffffffffffffffffffffffffffff19161491505061187f565b600190505b949350505050565b606060008214156118cf576040518060400160405280600181526020017f30000000000000000000000000000000000000000000000000000000000000008152509050611a2f565b600082905060005b600082146119015780806118ea90612a68565b915050600a826118fa91906128ea565b91506118d7565b60008167ffffffffffffffff811115611943577f4e487b7100000000000000000000000000000000000000000000000000000000600052604160045260246000fd5b6040519080825280601f01601f1916602001820160405280156119755781602001600182028036833780820191505090505b5090505b60008514611a285760018261198e919061291b565b9150600a8561199d9190612ab1565b60306119a99190612894565b60f81b8183815181106119e5577f4e487b7100000000000000000000000000000000000000000000000000000000600052603260045260246000fd5b60200101907effffffffffffffffffffffffffffffffffffffffffffffffffffffffffffff1916908160001a905350600a85611a2191906128ea565b9450611979565b8093505050505b919050565b611a3e8383611ab2565b611a4b60008484846116f0565b611a8a576040517f08c379a0000000000000000000000000000000000000000000000000000000008152600401611a8190612576565b60405180910390fd5b505050565b6000808273ffffffffffffffffffffffffffffffffffffffff163b119050919050565b600073ffffffffffffffffffffffffffffffffffffffff168273ffffffffffffffffffffffffffffffffffffffff161415611b22576040517f08c379a0000000000000000000000000000000000000000000000000000000008152600401611b19906126b6565b60405180910390fd5b611b2b81610f5b565b15611b6b576040517f08c379a0000000000000000000000000000000000000000000000000000000008152600401611b62906125b6565b60405180910390fd5b611b77600083836116e6565b6001600360008473ffffffffffffffffffffffffffffffffffffffff1673ffffffffffffffffffffffffffffffffffffffff1681526020019081526020016000206000828254611bc79190612894565b92505081905550816002600083815260200190815260200160002060006101000a81548173ffffffffffffffffffffffffffffffffffffffff021916908373ffffffffffffffffffffffffffffffffffffffff160217905550808273ffffffffffffffffffffffffffffffffffffffff16600073ffffffffffffffffffffffffffffffffffffffff167fddf252ad1be2c89b69c2b068fc378daa952ba7f163c4a11628f55a4df523b3ef60405160405180910390a4611c88600083836116eb565b5050565b828054611c9890612a05565b90600052602060002090601f016020900481019282611cba5760008555611d01565b82601f10611cd357805160ff1916838001178555611d01565b82800160010185558215611d01579182015b82811115611d00578251825591602001919060010190611ce5565b5b509050611d0e9190611d12565b5090565b5b80821115611d2b576000816000905550600101611d13565b5090565b6000611d42611d3d846127b6565b612791565b905082815260208101848484011115611d5a57600080fd5b611d658482856129c3565b509392505050565b6000611d80611d7b846127e7565b612791565b905082815260208101848484011115611d9857600080fd5b611da38482856129c3565b509392505050565b600081359050611dba8161302d565b92915050565b600081359050611dcf81613044565b92915050565b600081359050611de48161305b565b92915050565b600081519050611df98161305b565b92915050565b600082601f830112611e1057600080fd5b8135611e20848260208601611d2f565b91505092915050565b600082601f830112611e3a57600080fd5b8135611e4a848260208601611d6d565b91505092915050565b600081359050611e6281613072565b92915050565b600060208284031215611e7a57600080fd5b6000611e8884828501611dab565b91505092915050565b60008060408385031215611ea457600080fd5b6000611eb285828601611dab565b9250506020611ec385828601611dab565b9150509250929050565b600080600060608486031215611ee257600080fd5b6000611ef086828701611dab565b9350506020611f0186828701611dab565b9250506040611f1286828701611e53565b9150509250925092565b60008060008060808587031215611f3257600080fd5b6000611f4087828801611dab565b9450506020611f5187828801611dab565b9350506040611f6287828801611e53565b925050606085013567ffffffffffffffff811115611f7f57600080fd5b611f8b87828801611dff565b91505092959194509250565b60008060408385031215611faa57600080fd5b6000611fb885828601611dab565b9250506020611fc985828601611dc0565b9150509250929050565b60008060408385031215611fe657600080fd5b6000611ff485828601611dab565b925050602061200585828601611e53565b9150509250929050565b60006020828403121561202157600080fd5b600061202f84828501611dd5565b91505092915050565b60006020828403121561204a57600080fd5b600061205884828501611dea565b91505092915050565b60006020828403121561207357600080fd5b600082013567ffffffffffffffff81111561208d57600080fd5b61209984828501611e29565b91505092915050565b6000602082840312156120b457600080fd5b60006120c284828501611e53565b91505092915050565b600080604083850312156120de57600080fd5b60006120ec85828601611e53565b92505060206120fd85828601611e53565b9150509250929050565b6000612113838361211f565b60208301905092915050565b6121288161294f565b82525050565b6121378161294f565b82525050565b600061214882612828565b6121528185612856565b935061215d83612818565b8060005b8381101561218e5781516121758882612107565b975061218083612849565b925050600181019050612161565b5085935050505092915050565b6121a481612961565b82525050565b60006121b582612833565b6121bf8185612867565b93506121cf8185602086016129d2565b6121d881612b9e565b840191505092915050565b60006121ee8261283e565b6121f88185612878565b93506122088185602086016129d2565b61221181612b9e565b840191505092915050565b60006122278261283e565b6122318185612889565b93506122418185602086016129d2565b80840191505092915050565b600061225a603283612878565b915061226582612baf565b604082019050919050565b600061227d602583612878565b915061228882612bfe565b604082019050919050565b60006122a0601c83612878565b91506122ab82612c4d565b602082019050919050565b60006122c3602483612878565b91506122ce82612c76565b604082019050919050565b60006122e6601983612878565b91506122f182612cc5565b602082019050919050565b6000612309602c83612878565b915061231482612cee565b604082019050919050565b600061232c603883612878565b915061233782612d3d565b604082019050919050565b600061234f602a83612878565b915061235a82612d8c565b604082019050919050565b6000612372602983612878565b915061237d82612ddb565b604082019050919050565b6000612395602e83612878565b91506123a082612e2a565b604082019050919050565b60006123b8602083612878565b91506123c382612e79565b602082019050919050565b60006123db603183612878565b91506123e682612ea2565b604082019050919050565b60006123fe602c83612878565b915061240982612ef1565b604082019050919050565b6000612421602f83612878565b915061242c82612f40565b604082019050919050565b6000612444602183612878565b915061244f82612f8f565b604082019050919050565b6000612467603183612878565b915061247282612fde565b604082019050919050565b612486816129b9565b82525050565b6000612498828561221c565b91506124a4828461221c565b91508190509392505050565b60006020820190506124c5600083018461212e565b92915050565b60006080820190506124e0600083018761212e565b6124ed602083018661212e565b6124fa604083018561247d565b818103606083015261250c81846121aa565b905095945050505050565b60006020820190508181036000830152612531818461213d565b905092915050565b600060208201905061254e600083018461219b565b92915050565b6000602082019050818103600083015261256e81846121e3565b905092915050565b6000602082019050818103600083015261258f8161224d565b9050919050565b600060208201905081810360008301526125af81612270565b9050919050565b600060208201905081810360008301526125cf81612293565b9050919050565b600060208201905081810360008301526125ef816122b6565b9050919050565b6000602082019050818103600083015261260f816122d9565b9050919050565b6000602082019050818103600083015261262f816122fc565b9050919050565b6000602082019050818103600083015261264f8161231f565b9050919050565b6000602082019050818103600083015261266f81612342565b9050919050565b6000602082019050818103600083015261268f81612365565b9050919050565b600060208201905081810360008301526126af81612388565b9050919050565b600060208201905081810360008301526126cf816123ab565b9050919050565b600060208201905081810360008301526126ef816123ce565b9050919050565b6000602082019050818103600083015261270f816123f1565b9050919050565b6000602082019050818103600083015261272f81612414565b9050919050565b6000602082019050818103600083015261274f81612437565b9050919050565b6000602082019050818103600083015261276f8161245a565b9050919050565b600060208201905061278b600083018461247d565b92915050565b600061279b6127ac565b90506127a78282612a37565b919050565b6000604051905090565b600067ffffffffffffffff8211156127d1576127d0612b6f565b5b6127da82612b9e565b9050602081019050919050565b600067ffffffffffffffff82111561280257612801612b6f565b5b61280b82612b9e565b9050602081019050919050565b6000819050602082019050919050565b600081519050919050565b600081519050919050565b600081519050919050565b6000602082019050919050565b600082825260208201905092915050565b600082825260208201905092915050565b600082825260208201905092915050565b600081905092915050565b600061289f826129b9565b91506128aa836129b9565b9250827fffffffffffffffffffffffffffffffffffffffffffffffffffffffffffffffff038211156128df576128de612ae2565b5b828201905092915050565b60006128f5826129b9565b9150612900836129b9565b9250826129105761290f612b11565b5b828204905092915050565b6000612926826129b9565b9150612931836129b9565b92508282101561294457612943612ae2565b5b828203905092915050565b600061295a82612999565b9050919050565b60008115159050919050565b60007fffffffff0000000000000000000000000000000000000000000000000000000082169050919050565b600073ffffffffffffffffffffffffffffffffffffffff82169050919050565b6000819050919050565b82818337600083830152505050565b60005b838110156129f05780820151818401526020810190506129d5565b838111156129ff576000848401525b50505050565b60006002820490506001821680612a1d57607f821691505b60208210811415612a3157612a30612b40565b5b50919050565b612a4082612b9e565b810181811067ffffffffffffffff82111715612a5f57612a5e612b6f565b5b80604052505050565b6000612a73826129b9565b91507fffffffffffffffffffffffffffffffffffffffffffffffffffffffffffffffff821415612aa657612aa5612ae2565b5b600182019050919050565b6000612abc826129b9565b9150612ac7836129b9565b925082612ad757612ad6612b11565b5b828206905092915050565b7f4e487b7100000000000000000000000000000000000000000000000000000000600052601160045260246000fd5b7f4e487b7100000000000000000000000000000000000000000000000000000000600052601260045260246000fd5b7f4e487b7100000000000000000000000000000000000000000000000000000000600052602260045260246000fd5b7f4e487b7100000000000000000000000000000000000000000000000000000000600052604160045260246000fd5b6000601f19601f8301169050919050565b7f4552433732313a207472616e7366657220746f206e6f6e20455243373231526560008201527f63656976657220696d706c656d656e7465720000000000000000000000000000602082015250565b7f4552433732313a207472616e736665722066726f6d20696e636f72726563742060008201527f6f776e6572000000000000000000000000000000000000000000000000000000602082015250565b7f4552433732313a20746f6b656e20616c7265616479206d696e74656400000000600082015250565b7f4552433732313a207472616e7366657220746f20746865207a65726f2061646460008201527f7265737300000000000000000000000000000000000000000000000000000000602082015250565b7f4552433732313a20617070726f766520746f2063616c6c657200000000000000600082015250565b7f4552433732313a206f70657261746f7220717565727920666f72206e6f6e657860008201527f697374656e7420746f6b656e0000000000000000000000000000000000000000602082015250565b7f4552433732313a20617070726f76652063616c6c6572206973206e6f74206f7760008201527f6e6572206e6f7220617070726f76656420666f7220616c6c0000000000000000602082015250565b7f4552433732313a2062616c616e636520717565727920666f7220746865207a6560008201527f726f206164647265737300000000000000000000000000000000000000000000602082015250565b7f4552433732313a206f776e657220717565727920666f72206e6f6e657869737460008201527f656e7420746f6b656e0000000000000000000000000000000000000000000000602082015250565b7f45524337323155524953746f726167653a2055524920736574206f66206e6f6e60008201527f6578697374656e7420746f6b656e000000000000000000000000000000000000602082015250565b7f4552433732313a206d696e7420746f20746865207a65726f2061646472657373600082015250565b7f45524337323155524953746f726167653a2055524920717565727920666f722060008201527f6e6f6e6578697374656e7420746f6b656e000000000000000000000000000000602082015250565b7f4552433732313a20617070726f76656420717565727920666f72206e6f6e657860008201527f697374656e7420746f6b656e0000000000000000000000000000000000000000602082015250565b7f4552433732314d657461646174613a2055524920717565727920666f72206e6f60008201527f6e6578697374656e7420746f6b656e0000000000000000000000000000000000602082015250565b7f4552433732313a20617070726f76616c20746f2063757272656e74206f776e6560008201527f7200000000000000000000000000000000000000000000000000000000000000602082015250565b7f4552433732313a207472616e736665722063616c6c6572206973206e6f74206f60008201527f776e6572206e6f7220617070726f766564000000000000000000000000000000602082015250565b6130368161294f565b811461304157600080fd5b50565b61304d81612961565b811461305857600080fd5b50565b6130648161296d565b811461306f57600080fd5b50565b61307b816129b9565b811461308657600080fd5b5056fea26469706673582212208213ddb762e17d3a8e55beef8ba08de16b452ba0b38b01600e6326b6bdeb49f064736f6c63430008040033",
  "linkReferences": {},
  "deployedLinkReferences": {}
}